:100000000C941A010C9443010C9443010C94430189
:100010000C9443010C9443010C9443010C94430150
:100020000C9443010C9443010C9443010C94430140
:100030000C9443010C9443010C945C050C94430113
:100040000C9443010C9443010C9443010C94430120
:100050000C9443010C9443010C9443010C94430110
:100060000C9443010C9443010C9443010C94430100
:100070000C9443010C9443010C9443010C944301F0
:100080000C9443010C9443010C9443010C944301E0
:100090000C9443010C9443010C9443010C944301D0
:1000A0000C9443010C9443010C9443010C944301C0
:1000B0000C9443010C9443010C9443010C944301B0
:1000C0000C9443010C9443010C9443010C944301A0
:1000D0000C9443010C9443010C9443010C94430190
:1000E0000C9443010C9443010C9443010C94430180
:1000F0000C9443010C9443010C9443010C94430170
:100100000C9443010C9443010C9443010C9443015F
:100110000C9443010C9443010C9443010C9443014F
:100120000C9443010C9443010C9443010C9443013F
:100130000C9443010C9443010C9443010C9443012F
:100140000C9443010C9443010C9443010C9443011F
:100150000C9443010C9443010C9443010C9443010F
:100160000C9443010C9443010C9443010C944301FF
:100170000C9443010C9443010C9443010C944301EF
:100180000C9443010C9443010C9443010C944301DF
:100190000C9443010C9443010C9443010C944301CF
:1001A0000C9443010C9443010C9443010C944301BF
:1001B0000C945A170C9443010C9443010C94430182
:1001C0000C9443010C9443010C9443010C9443019F
:1001D0000C9443010C9443010C9443010C9443018F
:1001E0000C9443010C9443010C9443010C9443017F
:1001F0000C9443010C9443010C9443011511151107
:10020000151162114A115F111511151162114A1170
:100210000C946C0A0C944A110C9462110C943A03DD
:100220000C9415110C947E110C945F110C94FE1813
:100230000C94FB1211241FBECFEFCDBFDFE3DEBF56
:1002400000E00CBFE9EFFCE28AEA90E48193E03041
:10025000F907E0F310E2A0E0B0E2ECEFF9E300E030
:100260000BBF02C007900D92AE36B107D9F72CE252
:10027000AEE6B0E201C01D92A93FB207E1F70E94CD
:1002800075130C94FC1C0C9400000F93CF93DF9318
:100290001F92CDB7DEB72FB72983F8941BBEFC01A0
:1002A00008ED04BF608389818FBF0F90DF91CF91EC
:1002B0000F910895662311F090E201C090E0892B20
:1002C000482B4093520008956F71862B8093550000
:1002D0000895E0E5F0E09081282F20959223908307
:1002E000908189230895682B81E490E00E94450164
:1002F00008950F931F93CF93C82F00E410E0F801E7
:100300006081687F682B80E490E00E944501F801DD
:1003100080818C23CF911F910F910895FC019081D2
:10032000907F692B60830895FC019181987F692BF0
:1003300061830895FC0196819C7F692B66830895F3
:10034000000088ED84BF81E08093790008950E94C9
:10035000A00108958BE20E94A70108950F93011157
:100360000CC0DC01CB0182239323A423B523892B6A
:100370008A2B8B2B79F480E010C0DC01CB01822327
:100380009323A423B523281739074A075B0721F0D5
:1003900080E003C081E001C081E00F910895CF9318
:1003A000DF9380E190E00E944A03EC01009741F066
:1003B000FC011192119211921192CF010E947103CE
:1003C000CE01DF91CF9108952F923F924F925F928D
:1003D0006F927F928F929F92AF92BF92CF92DF9255
:1003E000EF92FF920F931F93CF93DF93EC014A019B
:1003F0005B01622E702E0E94040B288039804A8097
:100400005B80A5019401C201B1010E94AE01882365
:10041000A1F0662089F1D501C40180959095A09541
:10042000B09582219321A421B52188839983AA8341
:10043000BB83C12CD12C760122C0C114D104E104AC
:10044000F104E9F0611004C040E050E0BA0104C0DA
:1004500040E050E060E071E0711074604829592973
:100460006A297B2997018601CE0104960E94130D0B
:10047000212C312C210103C0C12CD12C76010E94EA
:10048000EC0BCD28CE28CF2889F1811102C00E9423
:10049000DC040E945A0E6B017C0191FD24C0F09196
:1004A000A200FF93F87FF093A200C880D980EA8071
:1004B000FB80072DA5019401C701B6010E94AE0182
:1004C000882371F0662061F080949094A094B09499
:1004D0008C209D20AE20BF2088829982AA82BB8278
:1004E000FF91F093A200160127015524C201B1012A
:1004F000DF91CF911F910F91FF90EF90DF90CF9000
:10050000BF90AF909F908F907F906F905F904F9033
:100510003F902F9008950F931F93F091A200FF93A7
:10052000F87FF093A200FC010081118122813381C8
:100530004095509560957095402351236223732315
:100540004083518362837383FF91F093A200C901BA
:10055000B8011F910F9108954F925F926F927F9211
:10056000AF92BF92CF92DF92EF92FF920F931F93C1
:10057000CF93DF93EC016A017B018C01095F1F4F70
:100580000E94040BEB85FC8588819981AA81BB813F
:10059000C82AD92AEA2AFB2AC882D982EA82FB829F
:1005A000C12CD12C76013DC0A480B5808081918181
:1005B000A281B381AC01BD017727B2FD0EC0488096
:1005C00059806A807B804422552266227722452802
:1005D0004628472889F420E012C0488059806A8064
:1005E0007B804422552266227722441555056605F4
:1005F000770521F020E003C021E001C021E02223A3
:1006000071F0B0FF04C0C42AD52AE62AF72A48812F
:1006100059816A817B817260CF010E949B0DEA2D16
:10062000FB2DE017F10709F0BFCFC094D094E09400
:10063000F09488819981AA81BB81C822D922EA22BB
:10064000FB22C882D982EA82FB820E94EC0B68817D
:1006500079818A819B81DF91CF911F910F91FF90CA
:10066000EF90DF90CF90BF90AF907F906F905F90B2
:100670004F9008950E94AC0208950F931F93890133
:100680009A01AB01BC018AE393E00E948D111F9196
:100690000F910895CF93DF93EC010E94040B2091FA
:1006A0006E2030916F20C9018C0F9D1F883B4BE05D
:1006B000940758F42817390758F4E901C059DF4D59
:1006C00080936E2090936F2005C0C0E0D0E002C000
:1006D000C0E0D0E00E94EC0BCE01DF91CF910895F5
:1006E0000895FC010396818392834FEF5FEFBA0177
:1006F000438354836583768387839087818792873A
:1007000010820895FC01128613860895CF93DF931B
:100710009C01FB01DC011196CD91DC911297C48301
:10072000D5838E819F81868397838E819F81DC0113
:1007300014966D937C9315976E837F8322873387FE
:10074000F90180818F5F8083DF91CF9108950F93AE
:100750001F93CF93DF93EB01088119812A813B819D
:100760000F3F4FEF14072407340721F4FC01A18544
:10077000B28511C0DC01139601C0DF011496ED9122
:10078000FC9115974081518162817381041715078F
:100790002607370790F71496ED91FC911597EC8397
:1007A000FD83C683D783AE83BF831496CD93DC933A
:1007B00015978A879B87FC0120812F5F2083DF911B
:1007C000CF911F910F910895CF93DF93FC01A285E4
:1007D000B385C481D581868197818E839F83C681AD
:1007E000D781848195818C839D8311968D919C9175
:1007F0001297E817F90731F48681978111968D9346
:100800009C931297128613868C9181508C938C91B5
:10081000DF91CF91089583EF91E080932608909324
:10082000270865E080E098E00E948E0161E080E0AA
:1008300098E00E949A010895E0EAF0E082819281B6
:10084000987F92830895CF930E941C04C82F0E9422
:100850001C0BC093A200CF910895CF92DF92EF922C
:10086000FF9231E1FC013083319722E220833197FE
:10087000A3E3A0836B01E12CF12C319760833197C6
:10088000D0823197E082319761E36083319760E8ED
:100890006083319767E860833197108231971082C7
:1008A000319762E06083319763E06083319764E061
:1008B0006083319765E06083319766E060833197AC
:1008C00067E06083319768E06083319769E0608317
:1008D000319760E1608331973083319732E1308323
:1008E000319733E13083319734E13083319735E10B
:1008F0003083319736E13083319737E13083319758
:1009000038E13083319739E13083319730E23083F9
:10091000319731E2308331972083319723E220836E
:100920006A01319740833197D082319726E2208344
:10093000319727E22083319728E22083319729E2FB
:100940002083319720E320838897FF90EF90DF90FA
:10095000CF9008950E940B04A091962CB091972CF3
:100960000D900DBE0D900EBEEF91DF91CF91BF9116
:10097000AF919F918F917F916F915F914F913F9137
:100980002F911F910F91FF90EF90DF90CF90BF902C
:10099000AF909F908F907F906F905F904F903F901F
:1009A0002F901F900F90FF91F093A200FF91FFBF37
:1009B000FF91089581E00895FF93FFB7FF93F091B1
:1009C000A200FF93F87FF093A2000F921F921124D0
:1009D0002F923F924F925F926F927F928F929F924F
:1009E000AF92BF92CF92DF92EF92FF920F931F933D
:1009F0002F933F934F935F936F937F938F939F9327
:100A0000AF93BF93CF93DF93EF93A091962CB091C8
:100A1000972C0DB60D920EB60D920E947A0CA091F5
:100A2000962CB091972C0D900DBE0D900EBEEF91AF
:100A3000DF91CF91BF91AF919F918F917F916F91F6
:100A40005F914F913F912F911F910F91FF90EF90E8
:100A5000DF90CF90BF90AF909F908F907F906F90DE
:100A60005F904F903F902F901F900F90FF91F093C9
:100A7000A200FF91FFBFFF910895CF939091F22CB8
:100A8000892B8093F22C9091A000913041F09091AD
:100A9000A000923021F09091A000943059F4882366
:100AA00049F00E941C04C82F1092F22C0E947A0C6C
:100AB000C093A200CF910895FF93FFB7FF93F091E9
:100AC000A200FF93F87FF093A2000F921F921124CF
:100AD0002F923F924F925F926F927F928F929F924E
:100AE000AF92BF92CF92DF92EF92FF920F931F933C
:100AF0002F933F934F935F936F937F938F939F9326
:100B0000AF93BF93CF93DF93EF93A091962CB091C7
:100B1000972C0DB60D920EB60D920E94230481E023
:100B20000E943D05A091962CB091972C0D900DBE82
:100B30000D900EBEEF91DF91CF91BF91AF919F913C
:100B40008F917F916F915F914F913F912F911F9165
:100B50000F91FF90EF90DF90CF90BF90AF909F905C
:100B60008F907F906F905F904F903F902F901F904D
:100B70000F90FF91F093A200FF91FFBFFF91189596
:100B8000F091A200FF93F87FF093A200FC01868D04
:100B9000811102C081E001C080E0FF91F093A200CA
:100BA0000895F091A200FF93F87FF093A200FC015A
:100BB000268D878D281302C081E001C080E0FF915F
:100BC000F093A20008950F931F93CF93DF93EC014E
:100BD000042F1E8D48A14423B9F1011116C050E025
:100BE0008C819D810E94B71C28A18C819D81820FE0
:100BF000911D8C839D832A813B818217930720F16D
:100C0000888199818C839D831FC050E08E819F8154
:100C10000E94B71C88A190E09195819591092E8141
:100C20003F81280F391F2E833F8348815981241724
:100C3000350730F42A813B81820F931F8E839F8377
:100C4000023011F4111111501F5F1E8F80E0DF91EF
:100C5000CF911F910F910895FC0140A14423A9F069
:100C600050E026813781240F351F26833783828108
:100C700093812817390720F080819181868397839B
:100C8000CB01668177810E94B71C08951F93CF9393
:100C9000DF93EC01F091A200FF93F87FF093A200A4
:100CA0001AA10BC08B89882351F0CE0143960E9474
:100CB000590D81110E94480E115011169CF38FEFAF
:100CC0008AA3FF91F093A200F091A200FF93F87F16
:100CD000F093A20019A10BC08885882351F0CE01A2
:100CE00008960E94590D81110E94480E115011164C
:100CF0009CF38FEF89A3FF91F093A200DF91CF9136
:100D00001F910895CF93DF93EC01F091A200FF9320
:100D1000F87FF093A200E881F9818F8D90E028A1FF
:100D200030E0829FA001839F500D929F500D1124AF
:100D30004E0F5F1F4A835B831E8EEC83FD830197FA
:100D4000289FA001299F500D389F500D1124CF01DD
:100D5000840F951F8E839F838FEF89A38AA36111D0
:100D60000CC08885882389F0CE0108960E94590D11
:100D7000882359F00E94DC0408C0CE0108960E9426
:100D80007103CE0143960E947103FF91F093A2007C
:100D900081E0DF91CF910895FF920F931F93CF933E
:100DA000DF93F22EE801611103C00883198302C0AA
:100DB000488359838F8F68A361E0CE010E94820629
:100DC000FCA2DF91CF911F910F91FF900895DF92C8
:100DD000EF92FF920F931F93CF93DF93E82EF62E9F
:100DE000D42E662321F0869FC001112402C080E02A
:100DF00090E085960E944A03EC01009749F08C012F
:100E00002D2DAC014B5D5F4F6F2D8E2D0E94CC06BA
:100E1000CE01DF91CF911F910F91FF90EF90DF9066
:100E20000895CF92DF92EF92FF920F931F93CF938B
:100E3000DF93CDB7DEB72997CDBFDEBF7C016B0155
:100E40002E833F834887598710E0F091A200FF93DB
:100E5000F87FF093A200F701968D878D981710F018
:100E60000230D1F4402FB601C7010E94E305F7011B
:100E70009389992349F0C70143960E94590D88230D
:100E800031F00E94DC0403C081110E94DC04FF9158
:100E9000F093A20081E058C08E819F81A885B9851A
:100EA000892B8A2B8B2B29F4FF91F093A20080E0F1
:100EB0004BC0111105C0CE0101960E94CF0D11E06B
:100EC000FF91F093A2000E94040BF091A200FF9307
:100ED000F87FF093A200F70181A18F3F09F411A2DE
:100EE000F70182A18F3F09F412A2FF91F093A200B3
:100EF000BE016A5F7F4FCE0101960E94E00D811115
:100F00001DC0C7010E94D105882391F04E815F81E9
:100F100068857985C70108960E94FB0CC7010E946D
:100F200046060E94EC0B811190CF0E94DC048DCF0D
:100F3000C7010E9446060E94EC0B87CFC7010E94A2
:100F400046060E94EC0B80E02996CDBFDEBFDF9104
:100F5000CF911F910F91FF90EF90DF90CF90089568
:100F6000AF92BF92CF92DF92FF920F931F93CF93D6
:100F7000DF93EC016B015A01022F0E941C04F82E32
:100F80009E8D8F8D981710F00230E1F41AA1402F3A
:100F9000B601CE010E94E3051F3F81F48B898823AF
:100FA00099F0CE0143960E94590D882379F0A1143F
:100FB000B10471F081E0F50180830BC01F5F1AA3BB
:100FC00081E007C080E005C081E003C081E001C08E
:100FD00081E0F092A200DF91CF911F910F91FF90DD
:100FE000DF90CF90BF90AF900895CF92DF92EF92B5
:100FF000FF920F931F93CF93DF93CDB7DEB729975F
:10100000CDBFDEBF8C016B012E833F83488759879C
:10101000E12CF091A200FF93F87FF093A200F80179
:10102000F68CFF20B1F0B601C8010E942C06FA949C
:10103000F801F68E8085882339F0C80108960E9451
:10104000590D81110E94DC04FF91F093A20081E010
:101050005FC08E819F81A885B985892B8A2B8B2BB8
:1010600029F4FF91F093A20080E052C0E11006C085
:10107000CE0101960E94CF0DEE24E394FF91F093F0
:10108000A2000E94040BF091A200FF93F87FF0935E
:10109000A200F80181A18F3F09F411A2F80182A1F9
:1010A0008F3F09F412A2FF91F093A200BE016A5F84
:1010B0007F4FCE0101960E94E00D81111DC0C80135
:1010C0000E94C005882391F04E815F8168857985F3
:1010D000C80143960E94FB0CC8010E9446060E946C
:1010E000EC0B811196CF0E94DC0493CFC8010E94C3
:1010F00046060E94EC0B8DCFC8010E9446060E9456
:10110000EC0BC8010E94C005882309F482CF80E05F
:101110002996CDBFDEBFDF91CF911F910F91FF9038
:10112000EF90DF90CF900895F091A200FF93F87FA9
:10113000F093A200FC01868DFF91F093A200089528
:10114000CF93DF93EC01F091A200FF93F87FF0932F
:10115000A20089A18F3F09F419A28AA18F3F09F447
:101160001AA2FF91F093A2008E8D811104C0CE01CE
:1011700043960E94380DCE010E944606DF91CF9122
:101180000895E091522CF091532C808181110CC074
:101190008FEF9FEFDC0180932B2C90932C2CA0934E
:1011A0002D2CB0932E2C0895E091522CF091532CBD
:1011B0000780F085E02D0084F185E02D8281938108
:1011C000A481B58180932B2C90932C2CA0932D2C53
:1011D000B0932E2C08952F923F924F925F926F9270
:1011E0007F928F929F92AF92BF92CF92DF92EF92B7
:1011F0000F931F93CF93DF93CDB7DEB71C014B0145
:1012000029013A01A90165EA70E0F501838D948D09
:101210000E94C01CF501838D948DF1E04F1A510896
:10122000480E591E20E00FC0822F90E0F401E80F15
:10123000F91F3081D501A80FB91F5D963C938081BD
:10124000882319F02F5F283078F3F50114A2F3E01A
:10125000FE1520F40F2EF3E0EF2EF02DF501E28EB7
:10126000C50102960E948203C5010E960E94820368
:10127000F501A286B38684E090E0A0E0B0E08E198C
:101280009109A109B10986879787A08BB18BA68A9E
:10129000B78A17A210A611A612A613A6A801B1011B
:1012A000C2010E942D04F50180839183C114D104F1
:1012B00019F0F601A082B182DF91CF911F910F91B9
:1012C000EF90DF90CF90BF90AF909F908F907F90E6
:1012D0006F905F904F903F902F900895CF93C0E014
:1012E00009C02BE0C29FC00111248659934D0E9472
:1012F0007103CF5FC430A8F38FE59CE20E947103B5
:1013000084E59CE20E94710385E49CE20E947103E3
:101310008AE39CE20E9471038FE59CE28093522C49
:101320009093532C84E59CE28093502C9093512C05
:10133000CF910895CF93DF93EC01F091A200FF933A
:10134000F87FF093A2008091392C8F5F8093392C25
:101350008091962C9091972C892B59F4C093962CC0
:10136000D093972C8091392C813099F40E946E098A
:1013700010C08091332C81110CC0E091962CF0911B
:10138000972C928D8A8D891720F0C093962CD0933C
:10139000972C80912F2C8F5F80932F2C8DA38A8D7B
:1013A0009091342C981710F48093342C2BE0829F6A
:1013B000C0011124BE016E5F7F4F8659934D0E947C
:1013C0008603FF91F093A2008091332C882351F083
:1013D000E091962CF091972C928D8A8D981710F4AD
:1013E0000E94DC04DF91CF9108958F929F92AF927B
:1013F000BF92CF92DF92EF92FF92CF936B017C016D
:10140000C42F8090352C9090362CA090372CB09023
:10141000382C8091962C9091972C02960E94E40390
:101420008FEFC816D806E806F80669F4CC2359F001
:101430006091962C7091972C6E5F7F4F8AE39CE2AF
:101440000E9486033FC0C80CD91CEA1CFB1CE0911B
:10145000962CF091972CC282D382E482F582C81434
:10146000D904EA04FB0468F46091962C7091972CDF
:101470008091502C9091512C6E5F7F4F0E94A7035A
:1014800021C06091962C7091972C8091522C909154
:10149000532C6E5F7F4F0E94A70380912B2C90915D
:1014A0002C2CA0912D2CB0912E2CC816D906EA0612
:1014B000FB0640F4C0922B2CD0922C2CE0922D2CC9
:1014C000F0922E2CCF91FF90EF90DF90CF90BF90B5
:1014D000AF909F908F90089580916A2C823010F089
:1014E0000E94DC040E947413F7CF2F923F924F9218
:1014F0005F926F927F928F929F92AF92BF92CF92A4
:10150000DF92EF92FF920F931F93CF93DF933C01F3
:101510001B015A012901CA010E944A036C01892B4F
:1015200071F08CE290E00E944A03EC01892B19F0E3
:10153000CB8EDC8E06C0C6010E94700302C0C0E0E4
:10154000D0E0209791F0950140E050E0812C912C63
:101550005E016701E02E8201B101C3010E94EB0828
:10156000CE010E949A0981E001C08FEFDF91CF91F7
:101570001F910F91FF90EF90DF90CF90BF90AF90B1
:101580009F908F907F906F905F904F903F902F90A3
:101590000895EF92FF920F930F2EF9E2EF2EFCE2E7
:1015A000FF2EF02D00E020E030E048EC50E060E05D
:1015B00070E28CE69AE00E94750A813011F40E9474
:1015C000100F8130E9F4E0EAF0E08281887F8283C5
:1015D0008FEF9FEFDC0180932B2C90932C2CA0930A
:1015E0002D2CB0932E2C81E08093332C1092352C2F
:1015F0001092362C1092372C1092382C0E94AA048C
:101600000F91FF90EF9008958091282C8F5F809329
:10161000282C0895F091A200FF93F87FF093A20088
:101620006091352C7091362C8091372C9091382C0C
:10163000FF91F093A2000895BF92CF92DF92EF92B4
:10164000FF920F931F93CF93DF938091282C8111EA
:10165000A9C0C090352CD090362CE090372CF0905B
:10166000382C2FEFC21AD20AE20AF20AC092352CA5
:10167000D092362CE092372CF092382CC114D10441
:10168000E104F104B9F48091522C9091532C2091F3
:10169000502C3091512C2093522C3093532C80930A
:1016A000502C9093512C8091302C8F5F8093302C54
:1016B0000E94C10880912B2C90912C2CA0912D2C54
:1016C000B0912E2CC816D906EA06FB0628F4B12CD8
:1016D0005AC0BB24B39401C0B12CE091522CF091BC
:1016E000532C808181110CC08FEF9FEFDC01809320
:1016F0002B2C90932C2CA0932D2CB0932E2C43C0EC
:10170000E091522CF091532C0780F085E02DC0859C
:10171000D1858A819B81AC81BD81C816D906EA0634
:10172000FB0648F480932B2C90932C2CA0932D2C0B
:10173000B0932E2C28C08E010E5F1F4FC8010E944F
:10174000E403888D998D892B21F0CE010E960E949D
:10175000E4038A8D9091342C981710F48093342CE4
:101760002BE0829FC0011124B8018659934D0E943D
:1017700086039A8DE091962CF091972C828D981784
:1017800008F0A7CFAACFE091962CF091972CE28D8C
:101790008BE0E89FF0011124E659F34D80818230FF
:1017A00040F409C08091322C8F5F8093322CB12C91
:1017B00002C0BB24B3948091312C882311F0BB2448
:1017C000B3948B2DDF91CF911F910F91FF90EF90EC
:1017D000DF90CF90BF9008950F931F93CF93DF9327
:1017E000F091A200FF93F87FF093A2008091282C43
:1017F00081508093282C8091282C811152C0809197
:10180000392C81112DC050C0E0914C2CF0914D2C01
:10181000C085D185CE010E960E94E4038E010E5F35
:101820001F4FC8010E94E4038A8D9091342C9817B1
:1018300010F48093342C2BE0829FC0011124B80156
:101840008659934D0E9486039A8DE091962CF091D3
:10185000972C828D981730F081E08093312C02C054
:10186000C0E0D0E08091452C8111CECFCD2B11F07E
:101870000E94C108C091322CCC2359F00E941C0B4D
:10188000882319F081E08093312CC150B9F7109270
:10189000322C8091312C882331F00E94DC0481E0CD
:1018A00003C080E001C080E0FF91F093A200DF91CF
:1018B000CF911F910F910895CF92DF92EF92FF92F7
:1018C0006B017C01672B682B692B51F00E94040B84
:1018D00040E0C701B6010E94F5090E94EC0B01C06F
:1018E00080E0811102C00E94DC04FF90EF90DF9045
:1018F000CF9008958091282C882321F081E0809357
:10190000312C08951092312CE091962CF091972C67
:10191000038CF48DE02D80819181A281B381853A81
:10192000954AA54AB54AD9F484819581A681B781A3
:10193000853A954AA54AB54A91F480859185A28554
:10194000B385853A954AA54AB54A49F48485958573
:10195000A685B785853A954AA54AB54A61F0609152
:10196000962C7091972C635E7F4F8091962C90916E
:10197000972C0E94AA018091342C01C08150282FFD
:1019800030E09BE0929FF001939FF00D1124E65907
:10199000F34D9081992391F39BE0929FA001939F37
:1019A000500D1124DF010180F281E02D0480F581CA
:1019B000E02D1196ED93FC9312974359534DE41784
:1019C000F50729F444815581FD01418352839BE051
:1019D000929FF001939FF00D1124E659F34D018081
:1019E000F281E02D208531852093962C3093972C21
:1019F0008093342C0895CF92DF92EF92FF926A0188
:101A00007B016091962C7091972C625F7F4F0E94B2
:101A1000A70341E0C701B6010E94F509FF90EF90CE
:101A2000DF90CF900895CF92DF92EF92FF920F93C5
:101A30001F9368017901E091962CF091972C7068C2
:101A400046875787608B718B6091962C7091972C8D
:101A5000625F7F4F0E94860341E0C701B6010E948A
:101A6000F5091F910F91FF90EF90DF90CF900895AF
:101A7000CF92DF92EF92FF92CF936A017B01C22F48
:101A80006091962C7091972C625F7F4F0E94860325
:101A9000CC2321F0CC24CA94DC2C76014C2FC70136
:101AA000B6010E94F509CF91FF90EF90DF90CF90A3
:101AB00008950F931F93CF93DF93DC011796ED9159
:101AC000FC911897C085D1858E01025F1F4FC80118
:101AD0000E94E4038091282C811116C00C5011093A
:101AE000C8010E94E4038A8D9091342C981710F459
:101AF0008093342CBBE08B9FC0011124B801865920
:101B0000934D0E94860305C0B80185E49CE20E94C3
:101B100086039A8DE091962CF091972C828D8917EF
:101B200020F481E08093312C01C080E0DF91CF91DF
:101B30001F910F9108950F931F93CF93DF937068B8
:101B4000FC014083518362837383C085D1850E94E9
:101B5000E4038E010E5F1F4FC8010E94E4038A8DCB
:101B60009091342C981710F48093342CFBE08F9FC5
:101B7000C0011124B8018659934D0E9486039A8DA5
:101B8000E091962CF091972C828D891718F481E0C2
:101B90008093312CDF91CF911F910F910895209167
:101BA000302CFC0120834091352C5091362C6091D3
:101BB000372C7091382C418352836383748308954A
:101BC0008F929F92AF92BF92CF92DF92EF92FF924D
:101BD0000F931F93CF93DF93DB01F091A200FF934C
:101BE000F87FF093A200C090352CD090362CE09076
:101BF000372CF090382CEC0109811A812B813C8123
:101C000046015701801A910AA20AB30A4D915D91CB
:101C10006D917C9113974F3FDFEF5D076D077D0757
:101C200021F1EC01F881E091302CFE1729F0C0166B
:101C3000D106E206F306D8F484169506A606B70682
:101C400068F4481959096A097B094D935D936D93AE
:101C50007C9313970E94CF0D80E00AC01D921D92C5
:101C60001D921C92139781E003C080E001C081E0C7
:101C7000FF91F093A200DF91CF911F910F91FF9000
:101C8000EF90DF90CF90BF90AF909F908F9008958E
:101C900081E08093312C08958091332C882331F09A
:101CA0008091282C811104C082E0089581E008957C
:101CB00080E00895CF92DF92EF92FF92E091962C10
:101CC000F091972C6685778580899189E091962C93
:101CD000F091972CA091962CB091972C5A962C911C
:101CE000C12CD12C76016894C2F8C21AD108E1083F
:101CF000F108C686D786E08AF18AFF90EF90DF90E0
:101D0000CF900895DC01E091A22CF091A32C80816A
:101D100091E0811190E09C93911108C00780F085BB
:101D2000E02D6081718182819381089560E070E08F
:101D3000CB010895CF92DF92EF92FF920F931F9302
:101D4000FC014283538364837583828793870417DE
:101D5000150726073707C0F00C191D092E093F0982
:101D600086859785A089B189081719072A073B0737
:101D700000F5BF016E5F7F4F8091A02C9091A12C48
:101D80000E94A70380E018C00C151D052E053F0515
:101D900028F44C155D056E057F0568F4BF016E5F84
:101DA0007F4F8091A22C9091A32C0E94A70380E0EA
:101DB00003C081E001C081E01F910F91FF90EF907F
:101DC000DF90CF900895F091A200FF93F87FF093F9
:101DD000A20080919E2C90919F2C892BE9F48FEA90
:101DE0009CE20E94710384EA9CE20E9471038FEAE4
:101DF0009CE28093A22C9093A32C84EA9CE2809393
:101E0000A02C9093A12C40E069E085E00E94E706B9
:101E100080939E2C90939F2CFF91F093A2000895A5
:101E2000EF92FF920F930E94E30E80919E2C90916F
:101E30009F2C892B91F00F2EFCE9EF2EFCE2FF2E58
:101E4000F02D03E020E030E048EC50E065E070E287
:101E50008EE791E10E94750A01C080E00F91FF902A
:101E6000EF9008958F929F92AF92BF92CF92DF92A0
:101E7000EF92FF920F931F93CF93DF93CDB7DEB70F
:101E80002997CDBFDEBFE0919E2CF0919F2C30971B
:101E900089F169832A833B834C835D838E839F838F
:101EA0006630FCF40E944C0E823069F400E0A70119
:101EB0009601BE016F5F7F4F80919E2C90919F2C69
:101EC0000E94110718C000E020E030E0A901BE0127
:101ED0006F5F7F4F80919E2C90919F2C0E941107E5
:101EE0000AC020E0A801BE016F5F7F4FCF010E94B2
:101EF000B00701C080E02996CDBFDEBFDF91CF9152
:101F00001F910F91FF90EF90DF90CF90BF90AF9017
:101F10009F908F9008958F929F92AF92BF92CF9291
:101F2000DF92EF92FF920F931F93CF93DF933CC00A
:101F30000780F085E02D80809180A280B380C085ED
:101F4000D1858E010E5F1F4FC8010E94E403ED8909
:101F5000FE89CE0119958A89813031F58E859F855C
:101F6000A889B989880D991DAA1DBB1D88169906D7
:101F7000AA06BB0670F48A839B83AC83BD83CA87A1
:101F8000DB87B8018091A22C9091A32C0E94A7031B
:101F90000BC0C12CD12C760100E010E0A50194010A
:101FA00060E0CE010E94320FE091A22CF091A32CB0
:101FB00080818111BDCF8091A02C9091A12C809324
:101FC000A22C9093A32CE093A02CF093A12CDF9152
:101FD000CF911F910F91FF90EF90DF90CF90BF9026
:101FE000AF909F908F900895CF92DF92EF92FF92E3
:101FF000CF93DF93EC010E940A0B6B017C0180916F
:10200000982C9091992CA0919A2CB0919B2CC81649
:10201000D906EA06FB0628F40E948B0F81E088832C
:1020200001C01882C092982CD092992CE0929A2CE0
:10203000F0929B2CC701B601DF91CF91FF90EF90FA
:10204000DF90CF9008954F925F926F927F928F9220
:102050009F92AF92BF92CF92DF92EF92FF920F9337
:102060001F93CF93DF934B015C0129013A01E0916B
:10207000A22CF091A32C0780F085E02DC085D1859E
:10208000CE0102960E94E4038A898130E1F44E85F4
:102090005F8568897989480D591D6A1D7B1D750109
:1020A000640193018201CE010E949A0E882359F0A7
:1020B000C12CD12C760100E010E0A501940160E074
:1020C000CE010E94320FED89FE89CE011995DF9174
:1020D000CF911F910F91FF90EF90DF90CF90BF9025
:1020E000AF909F908F907F906F905F904F900895EA
:1020F0008F929F92AF92BF92CF92DF92EF92FF9218
:102100001F93CF93DF931F92CDB7DEB76B017C0196
:10211000142F0E94040BCE0101960E94F40F4B0174
:102120005C01898181112EC011110EC08C149D0497
:10213000AE04BF0448F00E94EC0BA5019401C70156
:10214000B6010E94231020C0112341F0E091A02C81
:10215000F091A12C808111E0811110E0B701A6015E
:10216000481959096A097B09212F80919E2C909169
:102170009F2C0E94A0080E94EC0B811105C00E94B8
:10218000DC0402C00E94EC0B0F90DF91CF911F91F5
:10219000FF90EF90DF90CF90BF90AF909F908F9087
:1021A0000895AF92BF92CF92DF92EF92FF920F937A
:1021B0001F93CF93DF93CDB7DEB72A97CDBFDEBF96
:1021C00081C0898188234CF4EA81FB814E815F8143
:1021D000688579858C819D811995898188230CF486
:1021E00071C0AE80BF80D5011C968D919C911D97CA
:1021F000892B21F0C50102960E94E403CE010A96C4
:102200000E94F40F8B019C018981082E000C990B10
:10221000AA0BBB0B8A30910508F054C0FC0188273B
:10222000E250FF4F8F4F0C94AF1CCA80DB80EC80D4
:10223000FD80F50146855785608971894C0D5D1DCE
:102240006E1D7F1DC5010E949A0E8823D9F1D5010C
:102250005596ED91FC915697C5011995F501828926
:10226000813081F54A815B816C817D81868597858E
:10227000A089B1899A01AB01280F391F4A1F5B1F42
:10228000C12CD12C760100E010E060E0C5010E9475
:10229000320F18C04A815B816C817D81D5011E9609
:1022A0004D935D936D937C935197400F511F621F27
:1022B000731F68017901C5010E949A0E03C0C50110
:1022C0000E94700320E030E0A901BE016F5F7F4FE4
:1022D00080919E2C90919F2C0E94F507811171CFC7
:1022E0002A96CDBFDEBFDF91CF911F910F91FF9056
:1022F000EF90DF90CF90BF90AF900895CF93DF9392
:102300001F92CDB7DEB7CE0101960E94820E4981A1
:102310000E9478100E94D110F6CF0F931F93CF9395
:10232000DF93CDB7DEB72997CDBFDEBFEEEFE983F0
:102330008A839B836C837D832E833F834887598761
:1023400020E0A801BE016F5F7F4F80919E2C90918D
:102350009F2C0E94B0072996CDBFDEBFDF91CF91A1
:102360001F910F910895E0E5F0E080818160808306
:102370008091510080FFFCCF80E00E9479018EE1C6
:102380000E94690160E080E00E94730143E060E028
:1023900080E40E945A01E0E5F0E08081886080835B
:1023A0008091510083FFFCCF64E080EC0E946401C7
:1023B000E0E5F0E080818061808360E080E00E9461
:1023C00073018091510084FFFCCF84E00E94790169
:1023D00087E00E94690108950E94191A0895CF9319
:1023E000DF9300D000D0CDB7DEB79E012F5F3F4F07
:1023F00046E068E284ED0E942C1A8A8190E0982FD2
:1024000088272981822B8093C82C9093C92C8C819A
:1024100090E0982F88272B81822B8093C62C909355
:10242000C72C8E8190E0982F88272D81822B809356
:10243000C42C9093C52C2696CDBFDEBFDF91CF91E3
:102440000895CF93DF9300D000D0CDB7DEB79E01C3
:102450002F5F3F4F46E068E288E30E942C1A8A8192
:1024600090E0982F88272981822B8093C22C90930B
:10247000C32C8C8190E0982F88272B81822B80930E
:10248000C02C9093C12C8E8190E0982F88272D81AD
:10249000822B8093BE2C9093BF2C2696CDBFDEBF9F
:1024A000DF91CF910895CF92DF92EF92FF920F9339
:1024B0001F93CF93DF931F921F92CDB7DEB79E017C
:1024C0002F5F3F4F42E065E184ED0E942C1A6A8144
:1024D00070E0762F66277295707F898120E1829F58
:1024E000C0011124682B792B8B0115950795159543
:1024F0000795159507951595079526E636E646E660
:102500005FE36091BA2C7091BB2C8091BC2C9091B0
:10251000BD2C0E94421C6B017C01B801110F880B7D
:10252000990B0E948D1B20E030E040E85DE30E94A3
:10253000421C20E030E048EC51E40E94721A9B01FA
:10254000AC01C701B6010E94721A6093BA2C709355
:10255000BB2C8093BC2C9093BD2C0F900F90DF91DF
:10256000CF911F910F91FF90EF90DF90CF90089542
:102570008130910551F08230910561F0892B79F419
:102580008091C82C9091C92C08958091C62C90916F
:10259000C72C08958091C42C9091C52C089580E09B
:1025A00090E008958130910551F08230910561F0FD
:1025B000892B79F48091C22C9091C32C089580913D
:1025C000C02C9091C12C08958091BE2C9091BF2C6D
:1025D000089580E090E008956091BA2C7091BB2C32
:1025E0008091BC2C9091BD2C20E030E040E251E481
:1025F0000E94E31A08950E9453120E94EC12762E54
:10260000672E582E492E0E94EF1180E090E00E9424
:10261000B812B82EA92E81E090E00E94B812F82ED0
:10262000E92E82E090E00E94B812C82FD92F0E94B4
:10263000211280E090E00E94D212982E892E81E033
:1026400090E00E94D212D82EC92E82E090E00E9423
:10265000D212182F092F0E94F2194F925F926F9297
:102660007F928DE090E29F938F931F921F921F9213
:102670001F920E94FD198F929F92AF92BF9288E1A4
:1026800090E29F938F931F921F921F9281E08F93EE
:102690000E94FD19CF92DF92EF92FF928BE290E2BF
:1026A0009F938F931F921F921F9282E08F930E949D
:1026B000FD190F931F93DF93CF938EE390E29F93C7
:1026C0008F931F921F921F9283E08F930E94FD1998
:1026D0008DB79EB788968DBF9EBF68EE73E080E091
:1026E00090E00E945C0C87CF0895EF92FF920F93C9
:1026F0000E94B3110E9466180E94EC110F2EF3EF96
:10270000EF2EFCE2FF2EF02D01E020E030E042ED64
:1027100050E061E570E28BEF92E10E94750A0E9441
:10272000F2190E94C90A80E090E00F91FF90EF90AB
:102730000895CF92DF92EF92FF920F931F93CF9362
:10274000DF938C01FC01C080D180E280F380C0E087
:10275000D0E00BC020E030E040E251E4C701B60118
:102760000E94E31A6B017C01219620E030E040E8F2
:102770005FE3C701B6010E943D1C88235CF70BC0D4
:1027800020E030E040E251E4C701B6010E94421C63
:102790006B017C0121972DEC3CEC4CEC5DE3C70117
:1027A000B6010E94DE1A88235CF3F801C082D18250
:1027B000E282F382CE01DF91CF911F910F91FF90C2
:1027C000EF90DF90CF9008954F925F926F927F923B
:1027D0008F929F92AF92BF92CF92DF92EF92FF9231
:1027E0000F931F93CF93DF9300D01F92CDB7DEB727
:1027F0005C01E42EF52E062F172F49835A836B8335
:102800007C8320E030E0A9016E2D7F2D802F912F59
:102810000E94DE1A811105C080E3F50180831182D8
:10282000B9C020E030E0A9016E2D7F2D802F912FBF
:102830000E94DE1A88237CF48DE2F5018083898171
:102840009A81AB81BC81B05889839A83AB83BC8366
:10285000C50101965C01CE0101960E9499137C018D
:1028600000E010E038C020E030E040E251E469814F
:102870007A818B819C810E94421C0E94551B2B01F6
:102880003C0165019FEFC91AD90A80E3840DF50167
:10289000808320E030E040E251E469817A818B81DD
:1028A0009C810E94421C4B015C01B201550C880BBB
:1028B000990B0E948D1B9B01AC01C501B4010E94C4
:1028C000711A69837A838B839C830F5F1F4FF1E0BA
:1028D000EF1AF10856011E141F042CF20115110500
:1028E00031F480E3F5018083C50101965C01650147
:1028F0009FEFC91AD90A8EE2F50180830BC080E3ED
:10290000F6018083F1E0EF1AF1080F5F1F4FC60157
:1029100001966C01FF20CCF50430110584F335C01D
:1029200020E030E040E251E469817A818B819C8132
:102930000E94421C0E94551B4B015C0176019FEFD7
:10294000E91AF90A80E3880DF601808320E030E07F
:1029500040E251E469817A818B819C810E94421C12
:102960002B013C01B401990C880B990B0E948D1B23
:102970009B01AC01C301B2010E94711A69837A8381
:102980008B839C830F5F1F4F67010430110544F256
:10299000F60110822496CDBFDEBFDF91CF911F914B
:1029A0000F91FF90EF90DF90CF90BF90AF909F90EE
:1029B0008F907F906F905F904F9008952F923F92ED
:1029C0004F925F926F927F928F929F92AF92BF923F
:1029D000CF92DF92EF92FF920F931F93CF93DF93EB
:1029E000CDB7DEB72897CDBFDEBF7C01C42ED52E74
:1029F000062F172F49835A836B837C8320E030E0B6
:102A0000A9016C2D7D2D802F912F0E94DE1A81113E
:102A100005C080E3F70180831182A2C020E030E08E
:102A2000A9016C2D7D2D802F912F0E94DE1A882305
:102A30007CF48DE2F701808389819A81AB81BC812E
:102A4000B05889839A83AB83BC83C70101967C010C
:102A5000CE0101960E9499135C0120E030E040E233
:102A600051E469817A818B819C810E94421C0E9481
:102A7000551B2B013C0180E3840DF701808320E08E
:102A800030E040E251E469817A818B819C810E942F
:102A9000421C6D837E838F839887B201550C880B0F
:102AA000990B0E948D1B9B01AC016D817E818F81F2
:102AB00098850E94711A69837A838B839C831501A0
:102AC000F1E02F1A310887010E5F1F4F8EE2F701E8
:102AD0008183E12CF12C36C020E030E040E251E46B
:102AE00069817A818B819C810E94421C0E94551BC6
:102AF0002B013C016801FFEFCF1ADF0A80E3840D50
:102B0000F801808320E030E040E251E469817A817D
:102B10008B819C810E94421C4B015C01B201550CCF
:102B2000880B990B0E948D1B9B01AC01C501B40160
:102B30000E94711A69837A838B839C83FFEFEF1A5B
:102B4000FF0A860184E0E816F10434F2B8016F5FF1
:102B50007F4F85E6F80180834AE0C1010E94C71CCF
:102B60002896CDBFDEBFDF91CF911F910F91FF90CF
:102B7000EF90DF90CF90BF90AF909F908F907F901D
:102B80006F905F904F903F902F9008956F927F923B
:102B90008F929F92BF92CF92DF92EF92FF920F930C
:102BA0001F93CF93DF93CDB7DEB76697CDBFDEBF60
:102BB000B82E8B01DA01390180E090E005C0FC01FC
:102BC000E252F34D1082019684319105C4F380E006
:102BD00090E005C0FC01E653F34D1082019684316C
:102BE0009105C4F3E12CF12C14C1853209F001C127
:102BF0006D0182E0C80ED11C11968C91853609F4C6
:102C0000CDC038F48336C1F008F049C0853251F0A8
:102C1000FFC08337F9F0883709F46BC0863609F0B6
:102C2000F7C091C0D701A653B34D85E28C939FEFB7
:102C3000E91AF90AD601EDC0F3018081D701A65344
:102C4000B34D8C93FFEFEF1AFF0AC30102963C01CC
:102C5000D601DFC093012E5F3F4FF301A081B18108
:102C600080E090E00DC0B701680F791FAD01480FFB
:102C7000591FFA014081FB01E653F34D4083019651
:102C8000FD0101900020E9F73197EA1BFB0B8E173D
:102C90009F0748F3EE0EFF1E3901D601BAC043016B
:102CA000F2E08F0E911C4AE06EED7CE2F301808130
:102CB00091810E94C71C80E090E00BC0F701E80FF3
:102CC000F91FDC01A252B34D2C91E653F34D208342
:102CD0000196EEEDFCE201900020E9F73197EE5D00
:102CE000FC428E179F0750F3EE0EFF1E3401D601F3
:102CF00090C04301F2E08F0E911C40E16EED7CE24A
:102D0000F301808191810E94C71C80E090E00BC09C
:102D1000F701E80FF91FDC01A252B34D2C91E653E5
:102D2000F34D20830196EEEDFCE201900020E9F7DF
:102D30003197EE5DFC428E179F0750F3EE0EFF1E9B
:102D40003401D60166C04301F4E08F0E911CF301FB
:102D500040815181628173818EED9CE20E94E41377
:102D600080E090E00BC0F701E80FF91FDC01A252F0
:102D7000B34D2C91E653F34D20830196EEEDFCE22A
:102D800001900020E9F73197EE5DFC428E179F0716
:102D900050F3EE0EFF1E3401D6013BC04301F4E0B8
:102DA0008F0E911CF30140815181628173818EED00
:102DB0009CE20E94DE1480E090E00BC0F701E80F77
:102DC000F91FDC01A252B34D2C91E653F34D208341
:102DD0000196EEEDFCE201900020E9F73197EE5DFF
:102DE000FC428E179F0750F3EE0EFF1E3401D601F2
:102DF00010C0D701A653B34D8C938A3021F4D7016C
:102E0000A653B34D1C92FFEFEF1AFF0AD90101C080
:102E1000D6019D012F5F3F4F8C918111E6CEC701F6
:102E2000800F911F44972CF084E190E07C01E01A20
:102E3000F10A80E090E008C0E3E0F0E0EC0FFD1F55
:102E4000E80FF91F1082019684319105ACF3B98225
:102E50000A8380E090E00CC0FC01E653F34D208132
:102E6000E3E0F0E0EC0FFD1FE80FF91F208301966F
:102E70008E159F058CF300E02FEF3FEFA901BE01F7
:102E80006F5F7F4F8091F52C9091F62C0E94110777
:102E9000C7016696CDBFDEBFDF91CF911F910F9125
:102EA000FF90EF90DF90CF90BF909F908F907F909A
:102EB0006F9008951F920F920FB60F9211240BB6C8
:102EC0000F922F933F934F935F936F937F938F93C3
:102ED0009F93AF93BF93EF93FF93CF93DF931F9293
:102EE000CDB7DEB719829E012F5F3F4F41E050E022
:102EF00060E070E08091F72C9091F82C0E943D03E7
:102F000060E080E09BE00E948E011092060B0F9023
:102F1000DF91CF91FF91EF91BF91AF919F918F91F1
:102F20007F916F915F914F913F912F910F900BBEC9
:102F30000F900FBE0F901F901895CF92DF92EF92D7
:102F4000FF920F936B017C0182E0C816D104E1046B
:102F5000F10428F4C12CD12C76016894C1F8E0E08A
:102F6000FBE081E0868310A211A260E080E09BE09C
:102F70000E9494018EEFC8168FEFD806E104F10489
:102F800070F4F694E794D794C794C092260BD0922D
:102F9000270B65E080E09BE00E948E0119C080E471
:102FA000C81682E4D8068FE0E806F10488F4689435
:102FB00014F8F694E794D794C7941694D1F7C09276
:102FC000260BD092270B67E080E09BE00E948E01E9
:102FD0000F2EF4EFCF2EDD24D394E12CF12CF02D25
:102FE00000E021E041E050E060E070E08091F72CEB
:102FF0009091F82C0E94E4010F91FF90EF90DF90E8
:10300000CF9008958295807FE0E0F6E09481282FAC
:103010002F60922394839481892B8483089588233D
:1030200021F081E080936506089581E08093660633
:103030000895882321F082E080936506089582E058
:10304000809366060895882321F084E080936506C6
:10305000089584E080936606089581E00E94231815
:1030600061E070E080E090E00E949D1780E00E94A7
:1030700023180895CF93C82F82958F700E9402184D
:1030800080E00E940F1880E00E9419180E942D18FD
:103090008C2F8F700E9402180E942D18CF910895D6
:1030A000CF93C82F82958F700E94021881E00E94F2
:1030B0000F1880E00E9419180E942D188C2F8F7015
:1030C0000E9402180E942D18CF910895EF92FF924E
:1030D0000F93E0E0F6E080E1818380E2818380E489
:1030E000818380E88183A0E6B6E081E011968C932D
:1030F000119782E011968C93119784E011968C932E
:10310000119784818F70848314968C911497887F93
:1031100014968C9340E066E188E00E94E706809375
:10312000F52C9093F62C0E94CF018093F72C90936E
:10313000F82CE12CF12C01E020E030E04EE551E0EC
:1031400063E670E28EEF98E10E94750A0F91FF909E
:10315000EF9008958130910579F01CF4892B39F0B6
:1031600019C08230910569F0039781F013C080E89F
:10317000860F0E943A180EC080EC860F0E943A1803
:1031800009C084E9860F0E943A1804C084ED860FB6
:103190000E943A1867E270E080E090E00E949D177C
:1031A00008950E9450186BE270E080E090E00E9469
:1031B0009D1708950F931F93CF93DF938C01C0E069
:1031C000D0E009C0F801EC0FFD1F8081882331F0A9
:1031D0000E94D1182196C431D105A4F3DF91CF917B
:1031E0001F910F910895CF93DF93EA010E94AA18CF
:1031F000CE010E94DA18DF91CF910895CF93DF932B
:10320000CDB7DEB7C656D109CDBFDEBF80E090E0B6
:1032100019C044E1489FF001499FF00D112441E09D
:1032200050E04C0F5D1FE40FF51FE20FF31F40E26B
:1032300040832F5F3F4F02C020E030E02431310552
:1032400044F3019684309105BCF360E47CE980E0AE
:1032500090E00E949D1783E00E94021868E873E1E5
:1032600080E090E00E949D170E942D1860EA70E0B7
:1032700080E090E00E949D170E942D1860EA70E0A7
:1032800080E090E00E949D170E942D1860EA70E097
:1032900080E090E00E949D1782E00E9402180E9448
:1032A0002D1888E20E943A1880E10E943A188CE0BA
:1032B0000E943A1886E00E943A1868EC70E080E0BC
:1032C00090E00E945C0C40E050E0BA018091F72C45
:1032D0009091F82C0E948B02672B682B692B09F4C4
:1032E0005FC042E050E060E070E08091F72C909188
:1032F000F82C0E948B0240E050E019C024E1249F8A
:10330000F001259FF00D112421E030E02C0F3D1F2E
:10331000E20FF31FE80FF91F20E22083019602C09D
:1033200080E090E0843191054CF34F5F5F4F443073
:103330005105B4F335C02FEF3FEFA901BE016F5A1D
:103340007F4F8091F52C9091F62C0E94F5078823F1
:1033500039F112C062964FAD6297E1E0F0E0EC0FF8
:10336000FD1F74E1479FE00DF11D1124E80FF91FC7
:1033700060832F5F3F4F02C020E030E063968FAD47
:103380006397F901E80FF11DCF0174974CF4E1E563
:10339000F0E0EC0FFD1FE20FF31F62816111DACF45
:1033A0008091F52C9091F62C0E9494088111C3CF46
:1033B00000E010E013C084E1809FA001819F500DC8
:1033C000112421E030E02C0F3D1F420F531F60E01D
:1033D00070E0C8010E94F3180F5F1F4F0430110501
:1033E00054F36BCF42E050E060E070E08091F72C46
:1033F0009091F82C0E94AC020895CF93DF93CDB743
:10340000DEB79E01245F3F4F4A855B8568857985DD
:103410008E819F810E94C615DF91CF91089591E022
:10342000811101C090E0990F990F862F8370892B2D
:103430000895E0E4F6E083E08183848360E081E046
:103440000E940F1AE0E8F4E0838383E2858388E03A
:10345000818381E084830895FF920F931F93CF931C
:10346000DF93F42E8901809386049091840496FF63
:10347000FCCFE0E8F4E067838160868381E08F150C
:1034800008F080E061E00E940F1A80938304C0E09E
:10349000D0E01CC0809184048823E4F780918704E5
:1034A000F801EC0FFD1F808321503109C217D307AB
:1034B00014F063E001C062E081E0C217D3070CF4AE
:1034C00080E00E940F1A8093830421962F2D30E014
:1034D000C217D307FCF2DF91CF911F910F91FF909C
:1034E00008955058BB27AA270E94891A0C94031CE0
:1034F0000E94F51B38F00E94FC1B20F039F49F3F1E
:1035000019F426F40C94F21B0EF4E095E7FB0C94EE
:10351000EC1BE92F0E94141C58F3BA1762077307BB
:103520008407950720F079F4A6F50C94361C0EF468
:10353000E0950B2EBA2FA02D0B01B90190010C01C3
:10354000CA01A0011124FF27591B99F0593F50F4DB
:10355000503E68F11A16F040A22F232F342F442733
:10356000585FF3CF469537952795A795F04053952B
:10357000C9F77EF41F16BA0B620B730B840BBAF0FB
:103580009150A1F0FF0FBB1F661F771F881FC2F766
:103590000EC0BA0F621F731F841F48F4879577957A
:1035A0006795B795F7959E3F08F0B0CF9395880F34
:1035B00008F09927EE0F9795879508950E94C81BEC
:1035C00008F481E008950E94F71A0C94031C0E94ED
:1035D000FC1B58F00E94F51B40F029F45F3F29F0D6
:1035E0000C94EC1B51110C94371C0C94F21B0E9490
:1035F000141C68F39923B1F3552391F3951B550BD4
:10360000BB27AA2762177307840738F09F5F5F4FB5
:10361000220F331F441FAA1FA9F335D00E2E3AF0F4
:10362000E0E832D091505040E695001CCAF72BD00C
:10363000FE2F29D0660F771F881FBB1F261737075D
:103640004807AB07B0E809F0BB0B802DBF01FF278F
:1036500093585F4F3AF09E3F510578F00C94EC1B65
:103660000C94371C5F3FE4F3983ED4F3869577952E
:103670006795B795F7959F5FC9F7880F911D969548
:10368000879597F90895E1E0660F771F881FBB1FA4
:10369000621773078407BA0720F0621B730B840B51
:1036A000BA0BEE1F88F7E09508950E945C1B6894A2
:1036B000B1110C94371C08950E941C1C88F09F5770
:1036C00098F0B92F9927B751B0F0E1F0660F771F46
:1036D000881F991F1AF0BA95C9F714C0B13091F03C
:1036E0000E94361CB1E008950C94361C672F782F89
:1036F0008827B85F39F0B93FCCF386957795679501
:10370000B395D9F73EF490958095709561957F4F6C
:103710008F4F9F4F0895E89409C097FB3EF4909512
:103720008095709561957F4F8F4F9F4F9923A9F09A
:10373000F92F96E9BB279395F69587957795679529
:10374000B795F111F8CFFAF4BB0F11F460FF1BC06D
:103750006F5F7F4F8F4F9F4F16C0882311F096E900
:1037600011C0772321F09EE8872F762F05C06623AE
:1037700071F096E8862F70E060E02AF09A95660F67
:10378000771F881FDAF7880F9695879597F9089520
:10379000990F0008550FAA0BE0E8FEEF1616170662
:1037A000E807F907C0F012161306E407F50798F0CA
:1037B000621B730B840B950B39F40A2661F0232BE3
:1037C000242B252B21F408950A2609F4A140A6955F
:1037D0008FEF811D811D089597F99F6780E870E044
:1037E00060E008959FEF80EC089500240A94161677
:1037F000170618060906089500240A9412161306DF
:10380000140605060895092E0394000C11F488236C
:1038100052F0BB0F40F4BF2B11F460FF04C06F5F88
:103820007F4F8F4F9F4F089557FD9058440F551F5E
:1038300059F05F3F71F04795880F97FB991F61F032
:103840009F3F79F087950895121613061406551FA9
:10385000F2CF4695F1DF08C0161617061806991F15
:10386000F1CF86957105610508940895E894BB270A
:1038700066277727CB0197F908950E94C81B08F4A3
:103880008FEF08950E94551C0C94031C0E94F51B99
:1038900038F00E94FC1B20F0952311F00C94EC1BD7
:1038A0000C94F21B11240C94371C0E94141C70F30E
:1038B000959FC1F3950F50E0551F629FF001729FD5
:1038C000BB27F00DB11D639FAA27F00DB11DAA1FE4
:1038D000649F6627B00DA11D661F829F2227B00D31
:1038E000A11D621F739FB00DA11D621F839FA00DBC
:1038F000611D221F749F3327A00D611D231F849F0C
:10390000600D211D822F762F6A2F11249F57504062
:103910009AF0F1F088234AF0EE0FFF1FBB1F661FDD
:10392000771F881F91505040A9F79E3F510580F0A6
:103930000C94EC1B0C94371C5F3FE4F3983ED4F3DB
:10394000869577956795B795F795E7959F5FC1F74A
:10395000FE2B880F911D9695879597F90895EE0F88
:10396000FF1F881F8BBF0790F691E02D1994FB0174
:10397000DC0102C001900D9241505040D8F70895EB
:10398000DC0101C06D9341505040E0F70895BB2722
:103990004A3031F4992322F4BDE2909581959F4FEE
:1039A0000C94D31CBB27FB015527AA27880F991F0E
:1039B000AA1FA41710F0A41B83955051B9F7A05D5E
:1039C000AA3308F0A95DA193009779F7B111B193DB
:1039D0001192CB010C94EC1CDC01FC01672F71915E
:1039E0007723E1F7329704C07C916D9370836291E5
:0C39F000AE17BF07C8F30895F894FFCF8E
:1039FC0049444C4500546D72205376630054656DF8
:103A0C00703A2025662043004163632F4D61672087
:103A1C00583A202564202F202564004163632F4DE4
:103A2C00616720593A202564202F202564004163CA
:103A3C00632F4D6167205A3A202564202F2025647E
:103A4C000053656E736F7244617461446973706C7A
:0E3A5C0061790064697370557064617465006F
:00000001FF
