:100000000C949B010C94C4010C94C4010C94C40185
:100010000C94C4010C94C4010C94C4010C94C4014C
:100020000C94C4010C94C4010C94C4010C94C4013C
:100030000C94C4010C94C4010C94DD050C94C4010F
:100040000C94C4010C94C4010C94C4010C94C4011C
:100050000C94C4010C94C4010C94C4010C94C4010C
:100060000C94C4010C94C4010C94C4010C94C401FC
:100070000C94C4010C94C4010C94C4010C94C401EC
:100080000C94C4010C94C4010C94C4010C94C401DC
:100090000C94C4010C94C4010C94C4010C94C401CC
:1000A0000C94C4010C94C4010C94C4010C94C401BC
:1000B0000C94C4010C94C4010C94C4010C94C401AC
:1000C0000C94C4010C94C4010C94C4010C94C4019C
:1000D0000C94C4010C94C4010C94C4010C94C4018C
:1000E0000C94C4010C94C4010C94C4010C94C4017C
:1000F0000C94C4010C94C4010C94C4010C94C4016C
:100100000C94C4010C94C4010C94C4010C94C4015B
:100110000C94C4010C94C4010C94C4010C94C4014B
:100120000C94C4010C94C4010C94C4010C94C4013B
:100130000C94C4010C94C4010C94C4010C94C4012B
:100140000C94C4010C94C4010C94C4010C94C4011B
:100150000C94C4010C94C4010C94C4010C94C4010B
:100160000C94C4010C94C4010C94C4010C94C401FB
:100170000C94C4010C94C4010C94C4010C94C401EB
:100180000C94C4010C94C4010C94C4010C94C401DB
:100190000C94C4010C94C4010C94C4010C94C401CB
:1001A0000C94C4010C94C4010C94C4010C94C401BB
:1001B0000C94F5190C94C4010C94C4010C94C40162
:1001C0000C94C4010C94C4010C94C4010C94C4019B
:1001D0000C94C4010C94C4010C94C4010C94C4018B
:1001E0000C94C4010C94C4010C94C4010C94C4017B
:1001F0000C94C4010C94C4010C94C4019611961182
:100200009611E311CB11E01196119611E311CB1168
:100210000C94ED0A0C94CB110C94E3110C94BB03D9
:100220000C9496110C94FF110C94E0110C94991BF2
:100230000C94E5136E616E00696E660000407A10E2
:10024000F35A00A0724E18090010A5D4E80000E887
:100250007648170000E40B54020000CA9A3B0000E5
:1002600000E1F505000080969800000040420F0074
:100270000000A08601000000102700000000E80335
:10028000000000006400000000000A000000000000
:100290000100000000002C76D888DC674F0823DFBF
:1002A000C1DFAE59E1B1B796E5E3E453C63AE65192
:1002B000997696E8E6C28426EB898C9B62ED407CB9
:1002C0006FFCEFBC9C9F40F2BAA56FA5F490055A55
:1002D0002AF75C936B6CF9676DC11BFCE0E40D477A
:1002E000FEF520E6B500D0ED902E0300943577059D
:1002F0000080841E080000204E0A000000C80C3355
:100300003333330F986E12831141EF8D2114893BE3
:10031000E65516CFFEE6DB18D1844B381BF77C1D63
:10032000901DA4BBE424203284725E228100C9F1B6
:1003300024ECA1E53D2711241FBECFEFCDBFDFE3A5
:10034000DEBF00E00CBFEFEBF8E38AEA90E48193B4
:10035000E030F907E0F310E2A0E0B0E2E6E0FAE412
:1003600000E00BBF02C007900D92A637B107D9F786
:1003700028E3A6E7B0E201C01D92AF3BB207E1F768
:100380000E9410160C9401250C9400000F93CF933B
:10039000DF931F92CDB7DEB72FB72983F8941BBE2A
:1003A000FC0108ED04BF608389818FBF0F90DF914E
:1003B000CF910F910895662311F090E201C090E073
:1003C000892B482B4093520008956F71862B8093A0
:1003D00055000895E0E5F0E09081282F20959223C4
:1003E0009083908189230895682B81E490E00E9496
:1003F000C60108950F931F93CF93C82F00E410E018
:10040000F8016081687F682B80E490E00E94C6015B
:10041000F80180818C23CF911F910F910895FC01E9
:100420009081907F692B60830895FC019181987F72
:10043000692B61830895FC0196819C7F692B6683FB
:100440000895000088ED84BF81E0809379000895CD
:100450000E94210208958BE20E94280208950F93C2
:1004600001110CC0DC01CB0182239323A423B5230B
:10047000892B8A2B8B2B79F480E010C0DC01CB0117
:1004800082239323A423B523281739074A075B0740
:1004900021F080E003C081E001C081E00F91089568
:1004A000CF93DF9380E190E00E94CB03EC010097B3
:1004B00041F0FC011192119211921192CF010E9410
:1004C000F203CE01DF91CF9108952F923F924F9288
:1004D0005F926F927F928F929F92AF92BF92CF92D4
:1004E000DF92EF92FF920F931F93CF93DF93EC0174
:1004F0004A015B01622E702E0E94850B2880398094
:100500004A805B80A5019401C201B1010E942F02C3
:100510008823A1F0662089F1D501C40180959095CA
:10052000A095B09582219321A421B5218883998338
:10053000AA83BB83C12CD12C760122C0C114D10463
:10054000E104F104E9F0611004C040E050E0BA01B8
:1005500004C040E050E060E071E071107460482930
:1005600059296A297B2997018601CE0104960E94A8
:10057000940D212C312C210103C0C12CD12C7601EA
:100580000E946D0CCD28CE28CF2889F1811102C0A0
:100590000E945D050E94DB0E6B017C0191FD24C071
:1005A000F091A200FF93F87FF093A200C880D98059
:1005B000EA80FB80072DA5019401C701B6010E94C6
:1005C0002F02882371F0662061F080949094A094AB
:1005D000B0948C209D20AE20BF2088829982AA8270
:1005E000BB82FF91F093A200160127015524C2019E
:1005F000B101DF91CF911F910F91FF90EF90DF90AC
:10060000CF90BF90AF909F908F907F906F905F90B2
:100610004F903F902F9008950F931F93F091A20059
:10062000FF93F87FF093A200FC01008111812281E9
:1006300033814095509560957095402351236223F6
:1006400073234083518362837383FF91F093A200ED
:10065000C901B8011F910F9108954F925F926F9257
:100660007F92AF92BF92CF92DF92EF92FF920F9361
:100670001F93CF93DF93EC016A017B018C01095F2B
:100680001F4F0E94850BEB85FC8588819981AA818B
:10069000BB81C82AD92AEA2AFB2AC882D982EA82DF
:1006A000FB82C12CD12C76013DC0A480B580808115
:1006B0009181A281B381AC01BD017727B2FD0EC04B
:1006C000488059806A807B804422552266227722A6
:1006D00045284628472889F420E012C048805980E0
:1006E0006A807B8044225522662277224415550574
:1006F0006605770521F020E003C021E001C021E07C
:10070000222371F0B0FF04C0C42AD52AE62AF72AB2
:10071000488159816A817B817260CF010E941C0EE1
:10072000EA2DFB2DE017F10709F0BFCFC094D0945C
:10073000E094F09488819981AA81BB81C822D92252
:10074000EA22FB22C882D982EA82FB820E946D0CD7
:10075000688179818A819B81DF91CF911F910F916F
:10076000FF90EF90DF90CF90BF90AF907F906F9011
:100770005F904F9008950E942D0308950F931F934B
:1007800089019A01AB01BC018BEB93E00E940E1230
:100790001F910F910895CF93DF93EC010E94850B79
:1007A0002091762030917720C9018C0F9D1F8037D2
:1007B00047E1940758F42817390758F4E901C85855
:1007C000DF4D809376209093772005C0C0E0D0E085
:1007D00002C0C0E0D0E00E946D0CCE01DF91CF914D
:1007E00008950895FC010396818392834FEF5FEF94
:1007F000BA01438354836583768387839087818797
:10080000928710820895FC01128613860895CF9373
:10081000DF939C01FB01DC011196CD91DC911297D5
:10082000C483D5838E819F81868397838E819F81A8
:10083000DC0114966D937C9315976E837F832287DA
:100840003387F90180818F5F8083DF91CF91089595
:100850000F931F93CF93DF93EB01088119812A81B6
:100860003B810F3F4FEF14072407340721F4FC01AD
:10087000A185B28511C0DC01139601C0DF01149679
:10088000ED91FC911597408151816281738104172C
:1008900015072607370790F71496ED91FC911597E9
:1008A000EC83FD83C683D783AE83BF831496CD9339
:1008B000DC9315978A879B87FC0120812F5F20831B
:1008C000DF91CF911F910F910895CF93DF93FC019A
:1008D000A285B385C481D581868197818E839F83CC
:1008E000C681D781848195818C839D8311968D915A
:1008F0009C911297E817F90731F486819781119638
:100900008D939C931297128613868C9181508C93B1
:100910008C91DF91CF91089583EF91E08093260829
:100920009093270865E080E098E00E940F0261E064
:1009300080E098E00E941B020895E0EAF0E08281E6
:100940009281987F92830895CF930E949D04C82F2F
:100950000E949D0BC093A200CF910895CF92DF9289
:10096000EF92FF9231E1FC013083319722E2208344
:100970003197A3E3A0836B01E12CF12C31976083C5
:100980003197D0823197E082319761E3608331976C
:1009900060E86083319767E8608331971082319710
:1009A0001082319762E06083319763E06083319712
:1009B00064E06083319765E06083319766E060832F
:1009C000319767E06083319768E06083319769E031
:1009D0006083319760E1608331973083319732E1F2
:1009E0003083319733E13083319734E1308331976D
:1009F00035E13083319736E13083319737E1308309
:100A0000319738E13083319739E13083319730E2E3
:100A10003083319731E2308331972083319723E25D
:100A200020836A01319740833197D082319726E243
:100A30002083319727E22083319728E22083319762
:100A400029E22083319720E320838897FF90EF905D
:100A5000DF90CF9008950E948C04A0915638B091F9
:100A600057380D900DBE0D900EBEEF91DF91CF91D6
:100A7000BF91AF919F918F917F916F915F914F91B6
:100A80003F912F911F910F91FF90EF90DF90CF90AA
:100A9000BF90AF909F908F907F906F905F904F909E
:100AA0003F902F901F900F90FF91F093A200FF9125
:100AB000FFBFFF91089581E00895FF93FFB7FF9373
:100AC000F091A200FF93F87FF093A2000F921F9283
:100AD00011242F923F924F925F926F927F928F924A
:100AE0009F92AF92BF92CF92DF92EF92FF920F93BD
:100AF0001F932F933F934F935F936F937F938F93A6
:100B00009F93AF93BF93CF93DF93EF93A09156380A
:100B1000B09157380DB60D920EB60D920E94FB0C97
:100B2000A0915638B09157380D900DBE0D900EBE65
:100B3000EF91DF91CF91BF91AF919F918F917F9175
:100B40006F915F914F913F912F911F910F91FF9066
:100B5000EF90DF90CF90BF90AF909F908F907F905D
:100B60006F905F904F903F902F901F900F90FF914C
:100B7000F093A200FF91FFBFFF910895CF93909152
:100B8000B838892B8093B8389091A000913041F00B
:100B90009091A000923021F09091A000943059F4EF
:100BA000882349F00E949D04C82F1092B8380E94F3
:100BB000FB0CC093A200CF910895FF93FFB7FF9362
:100BC000F091A200FF93F87FF093A2000F921F9282
:100BD00011242F923F924F925F926F927F928F9249
:100BE0009F92AF92BF92CF92DF92EF92FF920F93BC
:100BF0001F932F933F934F935F936F937F938F93A5
:100C00009F93AF93BF93CF93DF93EF93A091563809
:100C1000B09157380DB60D920EB60D920E94A404F5
:100C200081E00E94BE05A0915638B09157380D90D2
:100C30000DBE0D900EBEEF91DF91CF91BF91AF91A0
:100C40009F918F917F916F915F914F913F912F91E4
:100C50001F910F91FF90EF90DF90CF90BF90AF90DA
:100C60009F908F907F906F905F904F903F902F90CC
:100C70001F900F90FF91F093A200FF91FFBFFF9193
:100C80001895F091A200FF93F87FF093A200FC0169
:100C9000868D811102C081E001C080E0FF91F09358
:100CA000A2000895F091A200FF93F87FF093A200B4
:100CB000FC01268D878D281302C081E001C080E0F1
:100CC000FF91F093A20008950F931F93CF93DF93AA
:100CD000EC01042F1E8D48A14423B9F1011116C067
:100CE00050E08C819D810E94EE2328A18C819D8102
:100CF000820F911D8C839D832A813B8182179307EC
:100D000020F1888199818C839D831FC050E08E8162
:100D10009F810E94EE2388A190E091958195910991
:100D20002E813F81280F391F2E833F8348815981AF
:100D30002417350730F42A813B81820F931F8E835D
:100D40009F83023011F4111111501F5F1E8F80E03C
:100D5000DF91CF911F910F910895FC0140A1442391
:100D6000A9F050E026813781240F351F2683378371
:100D7000828193812817390720F0808191818683B1
:100D80009783CB01668177810E94EE2308951F939C
:100D9000CF93DF93EC01F091A200FF93F87FF093E3
:100DA000A2001AA10BC08B89882351F0CE01439673
:100DB0000E94DA0D81110E94C90E115011169CF388
:100DC0008FEF8AA3FF91F093A200F091A200FF930E
:100DD000F87FF093A20019A10BC08885882351F0F9
:100DE000CE0108960E94DA0D81110E94C90E1150A1
:100DF00011169CF38FEF89A3FF91F093A200DF916E
:100E0000CF911F910895CF93DF93EC01F091A20051
:100E1000FF93F87FF093A200E881F9818F8D90E035
:100E200028A130E0829FA001839F500D929F500D1A
:100E300011244E0F5F1F4A835B831E8EEC83FD835C
:100E40000197289FA001299F500D389F500D112414
:100E5000CF01840F951F8E839F838FEF89A38AA371
:100E600061110CC08885882389F0CE0108960E9404
:100E7000DA0D882359F00E945D0508C0CE0108965E
:100E80000E94F203CE0143960E94F203FF91F09379
:100E9000A20081E0DF91CF910895FF920F931F93FD
:100EA000CF93DF93F22EE801611103C00883198309
:100EB00002C0488359838F8F68A361E0CE010E94EE
:100EC0000307FCA2DF91CF911F910F91FF9008952E
:100ED000DF92EF92FF920F931F93CF93DF93E82E51
:100EE000F62ED42E662321F0869FC001112402C065
:100EF00080E090E085960E94CB03EC01009749F0DA
:100F00008C012D2DAC014B5D5F4F6F2D8E2D0E94FE
:100F10004D07CE01DF91CF911F910F91FF90EF9080
:100F2000DF900895CF92DF92EF92FF920F931F937D
:100F3000CF93DF93CDB7DEB72997CDBFDEBF7C015E
:100F40006B012E833F834887598710E0F091A20000
:100F5000FF93F87FF093A200F701968D878D981785
:100F600010F00230D1F4402FB601C7010E94640690
:100F7000F7019389992349F0C70143960E94DA0D3E
:100F8000882331F00E945D0503C081110E945D0538
:100F9000FF91F093A20081E058C08E819F81A885C7
:100FA000B985892B8A2B8B2B29F4FF91F093A20012
:100FB00080E04BC0111105C0CE0101960E94500E79
:100FC00011E0FF91F093A2000E94850BF091A20026
:100FD000FF93F87FF093A200F70181A18F3F09F4FE
:100FE00011A2F70182A18F3F09F412A2FF91F093A1
:100FF000A200BE016A5F7F4FCE0101960E94610E82
:1010000081111DC0C7010E945206882391F04E81B4
:101010005F8168857985C70108960E947C0DC701AC
:101020000E94C7060E946D0C811190CF0E945D0541
:101030008DCFC7010E94C7060E946D0C87CFC701E4
:101040000E94C7060E946D0C80E02996CDBFDEBFCE
:10105000DF91CF911F910F91FF90EF90DF90CF9094
:101060000895AF92BF92CF92DF92FF920F931F939A
:10107000CF93DF93EC016B015A01022F0E949D0474
:10108000F82E9E8D8F8D981710F00230E1F41AA182
:10109000402FB601CE010E9464061F3F81F48B8968
:1010A000882399F0CE0143960E94DA0D882379F0C7
:1010B000A114B10471F081E0F50180830BC01F5FC2
:1010C0001AA381E007C080E005C081E003C081E091
:1010D00001C081E0F092A200DF91CF911F910F91AA
:1010E000FF90DF90CF90BF90AF900895CF92DF92A6
:1010F000EF92FF920F931F93CF93DF93CDB7DEB79D
:101100002997CDBFDEBF8C016B012E833F834887BB
:101110005987E12CF091A200FF93F87FF093A20091
:10112000F801F68CFF20B1F0B601C8010E94AD06AF
:10113000FA94F801F68E8085882339F0C801089664
:101140000E94DA0D81110E945D05FF91F093A200CB
:1011500081E05FC08E819F81A885B985892B8A2B0C
:101160008B2B29F4FF91F093A20080E052C0E11094
:1011700006C0CE0101960E94500EEE24E394FF912A
:10118000F093A2000E94850BF091A200FF93F87FDC
:10119000F093A200F80181A18F3F09F411A2F80198
:1011A00082A18F3F09F412A2FF91F093A200BE0129
:1011B0006A5F7F4FCE0101960E94610E81111DC0B2
:1011C000C8010E944106882391F04E815F816885A5
:1011D0007985C80143960E947C0DC8010E94C7060C
:1011E0000E946D0C811196CF0E945D0593CFC801BE
:1011F0000E94C7060E946D0C8DCFC8010E94C706D1
:101200000E946D0CC8010E944106882309F482CF18
:1012100080E02996CDBFDEBFDF91CF911F910F9166
:10122000FF90EF90DF90CF900895F091A200FF9390
:10123000F87FF093A200FC01868DFF91F093A2004D
:101240000895CF93DF93EC01F091A200FF93F87F14
:10125000F093A20089A18F3F09F419A28AA18F3FC0
:1012600009F41AA2FF91F093A2008E8D811104C09F
:10127000CE0143960E94B90DCE010E94C706DF91B0
:10128000CF910895E0911238F09113388081811147
:101290000CC08FEF9FEFDC018093EB379093EC371E
:1012A000A093ED37B093EE370895E0911238F091A6
:1012B00013380780F085E02D0084F185E02D8281D0
:1012C0009381A481B5818093EB379093EC37A09301
:1012D000ED37B093EE3708952F923F924F925F9281
:1012E0006F927F928F929F92AF92BF92CF92DF9236
:1012F000EF920F931F93CF93DF93CDB7DEB71C010F
:101300004B0129013A01A90165EA70E0F501838DDD
:10131000948D0E94F723F501838D948DF1E04F1A8F
:101320005108480E591E20E00FC0822F90E0F401B2
:10133000E80FF91F3081D501A80FB91F5D963C93C6
:101340008081882319F02F5F283078F3F50114A2EB
:10135000F3E0FE1520F40F2EF3E0EF2EF02DF50153
:10136000E28EC50102960E940304C5010E960E94FA
:101370000304F501A286B38684E090E0A0E0B0E02B
:101380008E199109A109B10986879787A08BB18B26
:10139000A68AB78A17A210A611A612A613A6A8019C
:1013A000B101C2010E94AE04F50180839183C11492
:1013B000D10419F0F601A082B182DF91CF911F9183
:1013C0000F91EF90DF90CF90BF90AF909F908F9054
:1013D0007F906F905F904F903F902F900895CF93A4
:1013E000C0E009C02BE0C29FC0011124865D974C6C
:1013F0000E94F203CF5FC430A8F38FE198E30E940C
:10140000F20384E198E30E94F20385E098E30E94EE
:10141000F2038AEF97E30E94F2038FE198E380934F
:1014200012389093133884E198E3809310389093A6
:101430001138CF910895CF93DF93EC01F091A20082
:10144000FF93F87FF093A2008091F9378F5F80932C
:10145000F9378091563890915738892B59F4C093B9
:101460005638D09357388091F937813099F40E94DB
:10147000EF0910C08091F33781110CC0E09156380C
:10148000F0915738928D8A8D891720F0C093563885
:10149000D09357388091EF378F5F8093EF378DA3CC
:1014A0008A8D9091F437981710F48093F4372BE0DD
:1014B000829FC0011124BE016E5F7F4F865D974CF5
:1014C0000E940704FF91F093A2008091F3378823D4
:1014D00051F0E0915638F0915738928D8A8D9817D7
:1014E00010F40E945D05DF91CF9108958F929F9235
:1014F000AF92BF92CF92DF92EF92FF92CF936B01A8
:101500007C01C42F8090F5379090F637A090F73784
:10151000B090F837809156389091573802960E94D3
:1015200065048FEFC816D806E806F80669F4CC23E0
:1015300059F060915638709157386E5F7F4F8AEF3F
:1015400097E30E9407043FC0C80CD91CEA1CFB1C8F
:10155000E0915638F0915738C282D382E482F58206
:10156000C814D904EA04FB0468F4609156387091F9
:10157000573880911038909111386E5F7F4F0E94DC
:10158000280421C0609156387091573880911238E4
:10159000909113386E5F7F4F0E9428048091EB3743
:1015A0009091EC37A091ED37B091EE37C816D9067F
:1015B000EA06FB0640F4C092EB37D092EC37E0929B
:1015C000ED37F092EE37CF91FF90EF90DF90CF9014
:1015D000BF90AF909F908F90089580912A3882306D
:1015E00010F00E945D050E940F16F7CF2F923F92D8
:1015F0004F925F926F927F928F929F92AF92BF9223
:10160000CF92DF92EF92FF920F931F93CF93DF93CE
:101610003C011B015A012901CA010E94CB036C0144
:10162000892B71F08CE290E00E94CB03EC01892BB6
:1016300019F0CB8EDC8E06C0C6010E94F10302C0F9
:10164000C0E0D0E0209791F0950140E050E0812C7F
:10165000912C5E016701E02E8201B101C3010E945D
:101660006C09CE010E941B0A81E001C08FEFDF915F
:10167000CF911F910F91FF90EF90DF90CF90BF908F
:10168000AF909F908F907F906F905F904F903F9022
:101690002F900895EF92FF920F930F2EF9EEEF2EF9
:1016A000F7E3FF2EF02D00E020E030E048EC50E0C2
:1016B00060E070E28DEE9AE00E94F60A813011F44B
:1016C0000E94910F8130E9F4E0EAF0E08281887FA6
:1016D00082838FEF9FEFDC018093EB379093EC37A1
:1016E000A093ED37B093EE3781E08093F3371092FB
:1016F000F5371092F6371092F7371092F8370E94AC
:101700002B050F91FF90EF9008958091E8378F5F40
:101710008093E8370895F091A200FF93F87FF0934B
:10172000A2006091F5377091F6378091F73790916C
:10173000F837FF91F093A2000895BF92CF92DF9205
:10174000EF92FF920F931F93CF93DF938091E8372F
:101750008111A9C0C090F537D090F637E090F737E7
:10176000F090F8372FEFC21AD20AE20AF20AC092BA
:10177000F537D092F637E092F737F092F837C11488
:10178000D104E104F104B9F4809112389091133836
:10179000209110383091113820931238309313383B
:1017A00080931038909311388091F0378F5F809339
:1017B000F0370E9442098091EB379091EC37A0916D
:1017C000ED37B091EE37C816D906EA06FB0628F4C5
:1017D000B12C5AC0BB24B39401C0B12CE091123893
:1017E000F0911338808181110CC08FEF9FEFDC01E5
:1017F0008093EB379093EC37A093ED37B093EE37AF
:1018000043C0E0911238F09113380780F085E02D45
:10181000C085D1858A819B81AC81BD81C816D906DE
:10182000EA06FB0648F48093EB379093EC37A093DD
:10183000ED37B093EE3728C08E010E5F1F4FC80101
:101840000E946504888D998D892B21F0CE010E961A
:101850000E9465048A8D9091F437981710F4809354
:10186000F4372BE0829FC0011124B801865D974CAC
:101870000E9407049A8DE0915638F0915738828D76
:10188000981708F0A7CFAACFE0915638F0915738B3
:10189000E28D8BE0E89FF0011124E65DF74C80813A
:1018A000823040F409C08091F2378F5F8093F23725
:1018B000B12C02C0BB24B3948091F137882311F07E
:1018C000BB24B3948B2DDF91CF911F910F91FF908B
:1018D000EF90DF90CF90BF9008950F931F93CF9319
:1018E000DF93F091A200FF93F87FF093A200809124
:1018F000E83781508093E8378091E837811152C0F2
:101900008091F93781112DC050C0E0910C38F091D1
:101910000D38C085D185CE010E960E9465048E01DA
:101920000E5F1F4FC8010E9465048A8D9091F437A5
:10193000981710F48093F4372BE0829FC001112494
:10194000B801865D974C0E9407049A8DE091563845
:10195000F0915738828D981730F081E08093F137FD
:1019600002C0C0E0D0E0809105388111CECFCD2BF0
:1019700011F00E944209C091F237CC2359F00E9425
:101980009D0B882319F081E08093F137C150B9F79E
:101990001092F2378091F137882331F00E945D0573
:1019A00081E003C080E001C080E0FF91F093A200DD
:1019B000DF91CF911F910F910895CF92DF92EF9217
:1019C000FF926B017C01672B682B692B51F00E9401
:1019D000850B40E0C701B6010E94760A0E946D0C9B
:1019E00001C080E0811102C00E945D05FF90EF9070
:1019F000DF90CF9008958091E837882321F081E02F
:101A00008093F13708951092F137E0915638F091B4
:101A10005738038CF48DE02D80819181A281B381B0
:101A2000853A954AA54AB54AD9F484819581A6811B
:101A3000B781853A954AA54AB54A91F48085918542
:101A4000A285B385853A954AA54AB54A49F4848565
:101A50009585A685B785853A954AA54AB54A61F028
:101A60006091563870915738635E7F4F8091563839
:101A7000909157380E942B028091F43701C0815019
:101A8000282F30E09BE0929FF001939FF00D1124EE
:101A9000E65DF74C9081992391F39BE0929FA00122
:101AA000939F500D1124DF010180F281E02D04800D
:101AB000F581E02D1196ED93FC931297435D574C01
:101AC000E417F50729F444815581FD0141835283D0
:101AD0009BE0929FF001939FF00D1124E65DF74C7F
:101AE0000180F281E02D2085318520935638309396
:101AF00057388093F4370895CF92DF92EF92FF9298
:101B00006A017B016091563870915738625F7F4F50
:101B10000E94280441E0C701B6010E94760AFF90A6
:101B2000EF90DF90CF900895CF92DF92EF92FF92E7
:101B30000F931F9368017901E0915638F09157385F
:101B4000706846875787608B718B609156387091AB
:101B50005738625F7F4F0E94070441E0C701B6011A
:101B60000E94760A1F910F91FF90EF90DF90CF9027
:101B70000895CF92DF92EF92FF92CF936A017B019B
:101B8000C22F6091563870915738625F7F4F0E9424
:101B90000704CC2321F0CC24CA94DC2C76014C2FF2
:101BA000C701B6010E94760ACF91FF90EF90DF90B7
:101BB000CF9008950F931F93CF93DF93DC01179677
:101BC000ED91FC911897C085D1858E01025F1F4F62
:101BD000C8010E9465048091E837811116C00C503D
:101BE0001109C8010E9465048A8D9091F4379817F5
:101BF00010F48093F437BBE08B9FC0011124B8012F
:101C0000865D974C0E94070405C0B80185E098E303
:101C10000E9407049A8DE0915638F0915738828DD2
:101C2000891720F481E08093F13701C080E0DF91D3
:101C3000CF911F910F9108950F931F93CF93DF932F
:101C40007068FC014083518362837383C085D185B2
:101C50000E9465048E010E5F1F4FC8010E9465043B
:101C60008A8D9091F437981710F48093F437FBE045
:101C70008F9FC0011124B801865D974C0E94070414
:101C80009A8DE0915638F0915738828D891718F463
:101C900081E08093F137DF91CF911F910F910895EB
:101CA0002091F037FC0120834091F5375091F637B1
:101CB0006091F7377091F83741835283638374835F
:101CC00008958F929F92AF92BF92CF92DF92EF9240
:101CD000FF920F931F93CF93DF93DB01F091A2004C
:101CE000FF93F87FF093A200C090F537D090F637BD
:101CF000E090F737F090F837EC0109811A812B81D9
:101D00003C8146015701801A910AA20AB30A4D91FB
:101D10005D916D917C9113974F3FDFEF5D076D07EC
:101D20007D0721F1EC01F881E091F037FE1729F0F1
:101D3000C016D106E206F306D8F484169506A60668
:101D4000B70668F4481959096A097B094D935D93F0
:101D50006D937C9313970E94500E80E00AC01D92F1
:101D60001D921D921C92139781E003C080E001C078
:101D700081E0FF91F093A200DF91CF911F910F912D
:101D8000FF90EF90DF90CF90BF90AF909F908F909B
:101D9000089581E08093F13708958091F337882387
:101DA00031F08091E837811104C082E0089581E02C
:101DB000089580E00895CF92DF92EF92FF92E09134
:101DC0005638F09157386685778580899189E091FA
:101DD0005638F0915738A0915638B09157385A96E6
:101DE0002C91C12CD12C76016894C2F8C21AD1086A
:101DF000E108F108C686D786E08AF18AFF90EF9065
:101E0000DF90CF900895DC01E0916238F091633863
:101E1000808191E0811190E09C93911108C007802E
:101E2000F085E02D6081718182819381089560E069
:101E300070E0CB010895CF92DF92EF92FF920F9363
:101E40001F93FC0142835383648375838287938746
:101E50000417150726073707C0F00C191D092E09AE
:101E60003F0986859785A089B189081719072A0730
:101E70003B0700F5BF016E5F7F4F80916038909106
:101E800061380E94280480E018C00C151D052E053D
:101E90003F0528F44C155D056E057F0568F4BF010C
:101EA0006E5F7F4F80916238909163380E94280462
:101EB00080E003C081E001C081E01F910F91FF909D
:101EC000EF90DF90CF900895F091A200FF93F87FFC
:101ED000F093A20080915E3890915F38892BE9F4ED
:101EE0008FE698E30E94F20384E698E30E94F203EF
:101EF0008FE698E3809362389093633884E698E3A2
:101F0000809360389093613840E069E085E00E94FA
:101F1000680780935E3890935F38FF91F093A2003A
:101F20000895EF92FF920F930E94640F80915E38A4
:101F300090915F38892B91F00F2EFCE5EF2EF8E39E
:101F4000FF2EF02D03E020E030E048EC50E065E0AB
:101F500070E28FEF91E10E94F60A01C080E00F91DC
:101F6000FF90EF9008958F929F92AF92BF92CF9281
:101F7000DF92EF92FF920F931F93CF93DF93CDB732
:101F8000DEB72997CDBFDEBFE0915E38F0915F38B4
:101F9000309789F169832A833B834C835D838E83E9
:101FA0009F836630FCF40E94CD0E823069F400E01D
:101FB000A7019601BE016F5F7F4F80915E389091BF
:101FC0005F380E94920718C000E020E030E0A901CD
:101FD000BE016F5F7F4F80915E3890915F380E94A5
:101FE00092070AC020E0A801BE016F5F7F4FCF01BA
:101FF0000E94310801C080E02996CDBFDEBFDF918D
:10200000CF911F910F91FF90EF90DF90CF90BF90F5
:10201000AF909F908F9008958F929F92AF92BF92B2
:10202000CF92DF92EF92FF920F931F93CF93DF93A4
:102030003CC00780F085E02D80809180A280B38035
:10204000C085D1858E010E5F1F4FC8010E946504B7
:10205000ED89FE89CE0119958A89813031F58E8509
:102060009F85A889B989880D991DAA1DBB1D881651
:102070009906AA06BB0670F48A839B83AC83BD8352
:10208000CA87DB87B80180916238909163380E94DB
:1020900028040BC0C12CD12C760100E010E0A50172
:1020A000940160E0CE010E94B30FE0916238F0919C
:1020B000633880818111BDCF809160389091613803
:1020C0008093623890936338E0936038F09361387E
:1020D000DF91CF911F910F91FF90EF90DF90CF9004
:1020E000BF90AF909F908F900895CF92DF92EF9224
:1020F000FF92CF93DF93EC010E948B0B6B017C016D
:102100008091583890915938A0915A38B0915B38E5
:10211000C816D906EA06FB0628F40E940C1081E0D6
:10212000888301C01882C0925838D0925938E09202
:102130005A38F0925B38C701B601DF91CF91FF901A
:10214000EF90DF90CF9008954F925F926F927F92C1
:102150008F929F92AF92BF92CF92DF92EF92FF92B7
:102160000F931F93CF93DF934B015C0129013A0139
:10217000E0916238F09163380780F085E02DC085EA
:10218000D185CE0102960E9465048A898130E1F4EE
:102190004E855F8568897989480D591D6A1D7B1DAB
:1021A0007501640193018201CE010E941B0F8823F7
:1021B00059F0C12CD12C760100E010E0A50194016A
:1021C00060E0CE010E94B30FED89FE89CE01199522
:1021D000DF91CF911F910F91FF90EF90DF90CF9003
:1021E000BF90AF909F908F907F906F905F904F9037
:1021F00008958F929F92AF92BF92CF92DF92EF920B
:10220000FF921F93CF93DF931F92CDB7DEB76B0181
:102210007C01142F0E94850BCE0101960E9475103F
:102220004B015C01898181112EC011110EC08C14EB
:102230009D04AE04BF0448F00E946D0CA5019401FA
:10224000C701B6010E94A41020C0112341F0E09103
:102250006038F0916138808111E0811110E0B701A0
:10226000A601481959096A097B09212F80915E3816
:1022700090915F380E9421090E946D0C811105C068
:102280000E945D0502C00E946D0C0F90DF91CF91FE
:102290001F91FF90EF90DF90CF90BF90AF909F90F5
:1022A0008F900895AF92BF92CF92DF92EF92FF92FC
:1022B0000F931F93CF93DF93CDB7DEB72A97CDBF90
:1022C000DEBF81C0898188234CF4EA81FB814E8185
:1022D0005F81688579858C819D81199589818823A5
:1022E0000CF471C0AE80BF80D5011C968D919C917D
:1022F0001D97892B21F0C50102960E946504CE012D
:102300000A960E9475108B019C018981082E000C91
:10231000990BAA0BBB0B8A30910508F054C0FC0145
:102320008827E250FF4F8F4F0C940323CA80DB8035
:10233000EC80FD80F50146855785608971894C0DDB
:102340005D1D6E1D7F1DC5010E941B0F8823D9F1E5
:10235000D5015596ED91FC915697C5011995F5015A
:102360008289813081F54A815B816C817D8186859E
:102370009785A089B1899A01AB01280F391F4A1F9F
:102380005B1FC12CD12C760100E010E060E0C5019C
:102390000E94B30F18C04A815B816C817D81D50199
:1023A0001E964D935D936D937C935197400F511FF3
:1023B000621F731F68017901C5010E941B0F03C0D2
:1023C000C5010E94F10320E030E0A901BE016F5F6A
:1023D0007F4F80915E3890915F380E94760881111E
:1023E00071CF2A96CDBFDEBFDF91CF911F910F91A4
:1023F000FF90EF90DF90CF90BF90AF900895CF9374
:10240000DF931F92CDB7DEB7CE0101960E94030F76
:1024100049810E94F9100E945211F6CF0F931F9329
:10242000CF93DF93CDB7DEB72997CDBFDEBFEEEFF9
:10243000E9838A839B836C837D832E833F834887D4
:10244000598720E0A801BE016F5F7F4F80915E3801
:1024500090915F380E9431082996CDBFDEBFDF9191
:10246000CF911F910F910895E0E5F0E080818160A8
:1024700080838091510080FFFCCF80E00E94FA01B0
:102480008EE10E94EA0160E080E00E94F40143E0F6
:1024900060E080E40E94DB01E0E5F0E0808188609C
:1024A00080838091510083FFFCCF64E080EC0E9428
:1024B000E501E0E5F0E080818061808360E080E01C
:1024C0000E94F4018091510084FFFCCF84E00E94BF
:1024D000FA0187E00E94EA0108950E94B41C48ECCA
:1024E00060E184ED0E940C1D40E061E184ED0E94FA
:1024F0000C1D40E062E184ED0E940C1D48E960E2A1
:1025000084ED0E940C1D40E061E284ED0E940C1DF0
:1025100044E062E284ED0E940C1D40E163E284ED40
:102520000E940C1D40EC6EE284ED0E940C1D4CE1FB
:1025300060E288E30E940C1D40E061E288E30E94B3
:102540000C1D40E062E288E30E940C1D40E063E263
:1025500088E30E940C1D40E064E288E30E940C1DA9
:1025600048E36EE184ED0E940C1D48E36FE184EDC9
:102570000E940C1D0895CF93DF9300D000D0CDB7FB
:10258000DEB79E012F5F3F4F46E068E284ED0E9478
:10259000C71C8A8190E0982F88272981822B8093FD
:1025A0008838909389388C8190E0982F88272B81E8
:1025B000822B80938638909387388E8190E0982F75
:1025C00088272D81822B8093843890938538269696
:1025D000CDBFDEBFDF91CF910895CF93DF9300D0C1
:1025E00000D0CDB7DEB79E012F5F3F4F46E068E1D8
:1025F00084ED0E94C71C8A8190E0982F882729814A
:10260000822B80938E3890938F388C8190E0982F16
:1026100088272B81822B80938C3890938D388E81E4
:1026200090E0982F88272D81822B80938A38909371
:102630008B382696CDBFDEBFDF91CF910895CF9323
:10264000DF9300D000D0CDB7DEB79E012F5F3F4FA4
:1026500046E068E288E30E94C71C8A8190E0982FD8
:1026600088272981822B80938238909383388C81AC
:1026700090E0982F88272B81822B8093803890932D
:1026800081388E8190E0982F88272D81822B80932E
:102690007E3890937F382696CDBFDEBFDF91CF91F5
:1026A0000895CF93DF931F921F92CDB7DEB79E019F
:1026B0002F5F3F4F42E065E184ED0E94C71C6A81B5
:1026C00070E0762F66278981682B759567957595DB
:1026D0006795759567957595679573FD706F072E6E
:1026E000000C880B990B0E94411E20E030E040E86E
:1026F0005DE30E94F61E20E030E04CEA51E40E94C7
:10270000261D60937A3870937B3880937C38909341
:102710007D380F900F90DF91CF9108958130910512
:1027200051F08230910561F0892B79F480918E38D7
:1027300090918F38089580918C3890918D380895BC
:1027400080918A3890918B38089580E090E00895C8
:102750008130910551F08230910561F0892B79F437
:102760008091883890918938089580918638909129
:10277000873808958091843890918538089580E055
:1027800090E008958130910551F08230910561F01B
:10279000892B79F4809182389091833808958091C3
:1027A000803890918138089580917E3890917F385B
:1027B000089580E090E0089560917A3870917B38B8
:1027C00080917C3890917D380895CF93DF93CDB779
:1027D000DEB7C057D109CDBFDEBF0E9451130E94A2
:1027E000DC1368966FAF689769967FAF69976A96B2
:1027F0008FAF6A976B969FAF6B970E94ED1280E048
:1028000090E00E948E137C0181E090E00E948E1384
:102810008C0182E090E00E948E133C010E94BB126A
:1028200080E090E00E94A8134C0181E090E00E94BB
:10283000A8135C0182E090E00E94A8136C010E9442
:102840001F1380E090E00E94C2132C0181E090E011
:102850000E94C2131C0182E090E00E94C21367969E
:102860008EAF9FAF6797B401990C880B990B0E94AC
:10287000411E9B01AC010E94261D20E030E040E09B
:1028800058E30E94F61E6C966FAF6C976D967FAF03
:102890006D976E968FAF6E976F969FAF6F97B501DE
:1028A000BB0C880B990B0E94411E9B01AC010E943E
:1028B000261D20E030E040E058E30E94F61EA0967E
:1028C0006FAFA097A1967FAFA197A2968FAFA29767
:1028D000A3969FAFA397B601DD0C880B990B0E94BE
:1028E000411E9B01AC010E94261D20E030E040E02B
:1028F00058E30E94F61EA4966FAFA497A5967FAFEB
:10290000A597A6968FAFA697A7969FAFA797B70153
:10291000FF0C880B990B0E94411E20E030E045E738
:1029200053E40E94F61E20E030E040E058E30E94AD
:10293000F61EA8966FAFA897A9967FAFA997AA96FB
:102940008FAFAA97AB969FAFAB97B801110F880BCB
:10295000990B0E94411E20E030E045E753E40E94BD
:10296000F61E20E030E040E058E30E94F61EAC96F0
:102970006FAFAC97AD967FAFAD97AE968FAFAE977A
:10298000AF969FAFAF97B301770C880B990B0E945E
:10299000411E20E030E045E753E40E94F61E20E0AF
:1029A00030E040E058E30E94F61EE62EF72E182F86
:1029B000092FB201550C880B990B0E94411E20E093
:1029C00030E040E850E40E94F61E20E030E048ECA1
:1029D00052E40E94F61E20E030E040E058E30E94FE
:1029E000F61EE0966FAFE097E1967FAFE197B82EC5
:1029F000A92EB101330C880B990B0E94411E20E0D7
:102A000030E040E850E40E94F61E20E030E048EC60
:102A100052E40E94F61E20E030E040E058E30E94BD
:102A2000F61E962E872E782E692E67962EAD3FAD18
:102A30006797B901330F880B990B0E94411E20E064
:102A400030E040E850E40E94F61E20E030E048EC20
:102A500052E40E94F61E20E030E040E058E30E947D
:102A6000F61E562E472E382E292E0E948D1C6B9650
:102A70003FAD6B973F936A968FAD6A978F93699638
:102A80009FAD69979F9368962FAD68972F938DE0C0
:102A900090E29F938F93CE0101966C019F938F9349
:102AA0000E946A240F931F93FF92EF92AF969FADFF
:102AB000AF979F93AE962FADAE972F93AD963FAD48
:102AC000AD973F93AC968FADAC978F93AB969FAD80
:102AD000AB979F93AA962FADAA972F93A9963FAD38
:102AE000A9973F93A8968FADA8978F938AE190E21C
:102AF0009F938F937E0196E1E90EF11CFF92EF9276
:102B00000E946A24A7962FADA7972F93A6963FAD54
:102B1000A6973F93A5968FADA5978F93A4969FAD4B
:102B2000A4979F93A3962FADA3972F93A2963FAD03
:102B3000A2973F93A1968FADA1978F93A0969FAD3B
:102B4000A0979F936F962FAD6F972F936E963FAD83
:102B50006E973F936D968FAD6D978F936C969FADEB
:102B60006C979F9380E390E29F938F938E01055D16
:102B70001F4F1F930F930E946A24CDBFDEBF2F9279
:102B80003F924F925F926F927F928F929F92AF92FD
:102B9000BF92E1963FADE1973F93E0968FADE0970E
:102BA0008F9384E490E29F938F935E0190E4A90E4B
:102BB000B11CBF92AF920E946A24DF92CF921F9203
:102BC0001F921F921F920E94981CFF92EF921F92D9
:102BD0001F921F9281E08F930E94981C1F930F9366
:102BE0001F921F921F9282E08F930E94981CCDBF6C
:102BF000DEBFBF92AF921F921F921F9283E08F930E
:102C00000E94981C68EE73E080E090E00E94DD0C6A
:102C10000F900F900F900F900F900F90DECD0895B2
:102C2000EF92FF920F930E9434120E94011B0E94A8
:102C30006D120F2EF9EBEF2EF8E3FF2EF02D01E0D1
:102C400020E030E040E951E069E570E285EE93E193
:102C50000E94F60A0E948D1C0E944A0B80E090E0C0
:102C60000F91FF90EF900895CF92DF92EF92FF9235
:102C70000F931F93CF93DF938C01FC01C080D18011
:102C8000E280F380C0E0D0E00BC020E030E040E222
:102C900051E4C701B6010E94971D6B017C0121968A
:102CA00020E030E040E85FE3C701B6010E94F11E7A
:102CB00088235CF70BC020E030E040E251E4C7011C
:102CC000B6010E94F61E6B017C0121972DEC3CECB5
:102CD0004CEC5DE3C701B6010E94921D88235CF3B2
:102CE000F801C082D182E282F382CE01DF91CF91DE
:102CF0001F910F91FF90EF90DF90CF9008954F922A
:102D00005F926F927F928F929F92AF92BF92CF927B
:102D1000DF92EF92FF920F931F93CF93DF9300D038
:102D20001F92CDB7DEB75C01E42EF52E062F172FCC
:102D300049835A836B837C8320E030E0A9016E2DA8
:102D40007F2D802F912F0E94921D811105C080E35D
:102D5000F50180831182B9C020E030E0A9016E2D19
:102D60007F2D802F912F0E94921D88237CF48DE26D
:102D7000F501808389819A81AB81BC81B0588983B8
:102D80009A83AB83BC83C50101965C01CE01019699
:102D90000E9434167C0100E010E038C020E030E0F2
:102DA00040E251E469817A818B819C810E94F61E08
:102DB0000E94091E2B013C0165019FEFC91AD90A27
:102DC00080E3840DF501808320E030E040E251E4AF
:102DD00069817A818B819C810E94F61E4B015C0186
:102DE000B201550C880B990B0E94411E9B01AC014E
:102DF000C501B4010E94251D69837A838B839C835E
:102E00000F5F1F4FF1E0EF1AF10856011E141F0467
:102E10002CF20115110531F480E3F5018083C50121
:102E200001965C0165019FEFC91AD90A8EE2F5018E
:102E300080830BC080E3F6018083F1E0EF1AF10894
:102E40000F5F1F4FC60101966C01FF20CCF50430C7
:102E5000110584F335C020E030E040E251E469819F
:102E60007A818B819C810E94F61E0E94091E4B0173
:102E70005C0176019FEFE91AF90A80E3880DF601FB
:102E8000808320E030E040E251E469817A818B81E7
:102E90009C810E94F61E2B013C01B401990C880B09
:102EA000990B0E94411E9B01AC01C301B2010E941B
:102EB000251D69837A838B839C830F5F1F4F670176
:102EC0000430110544F2F60110822496CDBFDEBF16
:102ED000DF91CF911F910F91FF90EF90DF90CF90F6
:102EE000BF90AF909F908F907F906F905F904F902A
:102EF00008952F923F924F925F926F927F928F929E
:102F00009F92AF92BF92CF92DF92EF92FF920F9378
:102F10001F93CF93DF93CDB7DEB72897CDBFDEBF2A
:102F20007C01C42ED52E062F172F49835A836B831D
:102F30007C8320E030E0A9016C2D7D2D802F912F26
:102F40000E94921D811105C080E3F70180831182E8
:102F5000A2C020E030E0A9016C2D7D2D802F912FA3
:102F60000E94921D88237CF48DE2F7018083898181
:102F70009A81AB81BC81B05889839A83AB83BC832F
:102F8000C70101967C01CE0101960E9434165C01B6
:102F900020E030E040E251E469817A818B819C81BC
:102FA0000E94F61E0E94091E2B013C0180E3840D45
:102FB000F701808320E030E040E251E469817A81CA
:102FC0008B819C810E94F61E6D837E838F83988700
:102FD000B201550C880B990B0E94411E9B01AC015C
:102FE0006D817E818F8198850E94251D69837A83FA
:102FF0008B839C831501F1E02F1A310887010E5F46
:103000001F4F8EE2F7018183E12CF12C36C020E0C6
:1030100030E040E251E469817A818B819C810E9499
:10302000F61E0E94091E2B013C016801FFEFCF1A1A
:10303000DF0A80E3840DF801808320E030E040E285
:1030400051E469817A818B819C810E94F61E4B013B
:103050005C01B201550C880B990B0E94411E9B012B
:10306000AC01C501B4010E94251D69837A838B835D
:103070009C83FFEFEF1AFF0A860184E0E816F10453
:1030800034F2B8016F5F7F4F85E6F80180834AE034
:10309000C1010E9409242896CDBFDEBFDF91CF91E8
:1030A0001F910F91FF90EF90DF90CF90BF90AF9066
:1030B0009F908F907F906F905F904F903F902F9058
:1030C00008956F927F928F929F92BF92CF92DF92DC
:1030D000EF92FF920F931F93CF93DF93CDB7DEB79D
:1030E0006697CDBFDEBFB82E8B01DA01390180E0D3
:1030F00090E005C0FC01EC55F74C1082019684313C
:103100009105C4F380E090E005C0FC01E057F74C66
:103110001082019684319105C4F3E12CF12C14C185
:10312000853209F001C16D0182E0C80ED11C1196F3
:103130008C91853609F4CDC038F48336C1F008F09F
:1031400049C0853251F0FFC08337F9F0883709F460
:103150006BC0863609F0F7C091C0D701A057B74CB5
:1031600085E28C939FEFE91AF90AD601EDC0F301CD
:103170008081D701A057B74C8C93FFEFEF1AFF0A5D
:10318000C30102963C01D601DFC093012E5F3F4F81
:10319000F301A081B18180E090E00DC0B701680F1C
:1031A000791FAD01480F591FFA014081FB01E0571B
:1031B000F74C40830196FD0101900020E9F731971B
:1031C000EA1BFB0B8E179F0748F3EE0EFF1E39011B
:1031D000D601BAC04301F2E08F0E911C4AE064EAC6
:1031E00078E3F301808191810E94092480E090E0DE
:1031F0000BC0F701E80FF91FDC01AC55B74C2C915F
:10320000E057F74C20830196E4EAF8E301900020B0
:10321000E9F73197E45AF8438E179F0750F3EE0E03
:10322000FF1E3401D60190C04301F2E08F0E911CC5
:1032300040E164EA78E3F301808191810E940924EE
:1032400080E090E00BC0F701E80FF91FDC01AC55FE
:10325000B74C2C91E057F74C20830196E4EAF8E351
:1032600001900020E9F73197E45AF8438E179F0741
:1032700050F3EE0EFF1E3401D60166C04301F4E0A8
:103280008F0E911CF301408151816281738184EA28
:1032900098E30E947F1680E090E00BC0F701E80FF2
:1032A000F91FDC01AC55B74C2C91E057F74C20834B
:1032B0000196E4EAF8E301900020E9F73197E45A37
:1032C000F8438E179F0750F3EE0EFF1E3401D60110
:1032D0003BC04301F4E08F0E911CF301408151810A
:1032E0006281738184EA98E30E94791780E090E01C
:1032F0000BC0F701E80FF91FDC01AC55B74C2C915E
:10330000E057F74C20830196E4EAF8E301900020AF
:10331000E9F73197E45AF8438E179F0750F3EE0E02
:10332000FF1E3401D60110C0D701A057B74C8C93B3
:103330008A3021F4D701A057B74C1C92FFEFEF1A47
:10334000FF0AD90101C0D6019D012F5F3F4F8C912B
:103350008111E6CEC701800F911F44972CF084E1C4
:1033600090E07C01E01AF10A80E090E008C0E3E020
:10337000F0E0EC0FFD1FE80FF91F10820196843179
:103380009105ACF3B9820A8380E090E00CC0FC01A7
:10339000E057F74C2081E3E0F0E0EC0FFD1FE80F71
:1033A000F91F208301968E159F058CF300E02FEF07
:1033B0003FEFA901BE016F5F7F4F8091BB389091B5
:1033C000BC380E949207C7016696CDBFDEBFDF9171
:1033D000CF911F910F91FF90EF90DF90CF90BF9012
:1033E0009F908F907F906F9008951F920F920FB6CD
:1033F0000F9211240BB60F922F933F934F935F932D
:103400006F937F938F939F93AF93BF93EF93FF93AC
:10341000CF93DF931F92CDB7DEB719829E012F5F46
:103420003F4F41E050E060E070E08091BD38909106
:10343000BE380E94BE0360E080E09BE00E940F0265
:103440001092060B0F90DF91CF91FF91EF91BF91FA
:10345000AF919F918F917F916F915F914F913F912C
:103460002F910F900BBE0F900FBE0F901F901895CD
:10347000CF92DF92EF92FF920F936B017C0182E07B
:10348000C816D104E104F10428F4C12CD12C760132
:103490006894C1F8E0E0FBE081E0868310A211A20D
:1034A00060E080E09BE00E9415028EEFC8168FEF6F
:1034B000D806E104F10470F4F694E794D794C79425
:1034C000C092260BD092270B65E080E09BE00E9423
:1034D0000F0219C080E4C81682E4D8068FE0E8061F
:1034E000F10488F4689414F8F694E794D794C79498
:1034F0001694D1F7C092260BD092270B67E080E09C
:103500009BE00E940F020F2EF4EFCF2EDD24D39408
:10351000E12CF12CF02D00E021E041E050E060E0F2
:1035200070E08091BD389091BE380E9465020F9185
:10353000FF90EF90DF90CF9008958295807FE0E03C
:10354000F6E09481282F2F60922394839481892B15
:1035500084830895882321F081E08093650608958F
:1035600081E0809366060895882321F082E08093AD
:103570006506089582E0809366060895882321F009
:1035800084E080936506089584E08093660608953C
:1035900081E00E94BE1A61E070E080E090E00E944D
:1035A000381A80E00E94BE1A0895CF93C82F8295E2
:1035B0008F700E949D1A80E00E94AA1A80E00E94EB
:1035C000B41A0E94C81A8C2F8F700E949D1A0E94F4
:1035D000C81ACF910895CF93C82F82958F700E94FB
:1035E0009D1A81E00E94AA1A80E00E94B41A0E94EB
:1035F000C81A8C2F8F700E949D1A0E94C81ACF91F2
:103600000895EF92FF920F93E0E0F6E080E181836E
:1036100080E2818380E4818380E88183A0E6B6E054
:1036200081E011968C93119782E011968C931197FB
:1036300084E011968C93119784818F708483149603
:103640008C911497887F14968C9340E066E188E013
:103650000E9468078093BB389093BC380E94500248
:103660008093BD389093BE38E12CF12C01E020E02E
:1036700030E04EE551E06BE670E289E99BE10E94A3
:10368000F60A0F91FF90EF9008958130910579F03F
:103690001CF4892B39F019C08230910569F0039729
:1036A00081F013C080E8860F0E94D51A0EC080EC0E
:1036B000860F0E94D51A09C084E9860F0E94D51A88
:1036C00004C084ED860F0E94D51A67E270E080E0A6
:1036D00090E00E94381A08950E94EB1A6BE270E0A5
:1036E00080E090E00E94381A08950F931F93CF93C3
:1036F000DF938C01C0E0D0E009C0F801EC0FFD1FA2
:103700008081882331F00E946C1B2196C431D10541
:10371000A4F3DF91CF911F910F910895CF93DF9381
:10372000EA010E94451BCE010E94751BDF91CF91DB
:103730000895CF93DF93CDB7DEB7C656D109CDBF7D
:10374000DEBF80E090E019C044E1489FF001499F4E
:10375000F00D112441E050E04C0F5D1FE40FF51F08
:10376000E20FF31F40E240832F5F3F4F02C020E093
:1037700030E02431310544F3019684309105BCF3E7
:1037800060E47CE980E090E00E94381A83E00E94C7
:103790009D1A68E873E180E090E00E94381A0E9468
:1037A000C81A60EA70E080E090E00E94381A0E9437
:1037B000C81A60EA70E080E090E00E94381A0E9427
:1037C000C81A60EA70E080E090E00E94381A82E057
:1037D0000E949D1A0E94C81A88E20E94D51A80E1B0
:1037E0000E94D51A8CE00E94D51A86E00E94D51A54
:1037F00068EC70E080E090E00E94DD0C40E050E07A
:10380000BA018091BD389091BE380E940C03672B9D
:10381000682B692B09F45FC042E050E060E070E083
:103820008091BD389091BE380E940C0340E050E07A
:1038300019C024E1249FF001259FF00D112421E0FF
:1038400030E02C0F3D1FE20FF31FE80FF91F20E2BD
:103850002083019602C080E090E0843191054CF312
:103860004F5F5F4F44305105B4F335C02FEF3FEF4A
:10387000A901BE016F5A7F4F8091BB389091BC382F
:103880000E947608882339F112C062964FAD629784
:10389000E1E0F0E0EC0FFD1F74E1479FE00DF11D4A
:1038A0001124E80FF91F60832F5F3F4F02C020E013
:1038B00030E063968FAD6397F901E80FF11DCF01FA
:1038C00074974CF4E1E5F0E0EC0FFD1FE20FF31FFD
:1038D00062816111DACF8091BB389091BC380E942F
:1038E00015098111C3CF00E010E013C084E1809F6F
:1038F000A001819F500D112421E030E02C0F3D1FCD
:10390000420F531F60E070E0C8010E948E1B0F5FE2
:103910001F4F0430110554F36BCF42E050E060E0DC
:1039200070E08091BD389091BE380E942D030895BB
:10393000CF93DF93CDB7DEB79E01245F3F4F4A851B
:103940005B85688579858E819F810E946118DF91F2
:10395000CF91089591E0811101C090E0990F990FE6
:10396000862F8370892B0895E0E4F6E083E081835D
:10397000848360E081E00E94AA1CE0E8F4E0838395
:1039800083E2858388E0818381E084830895FF92C8
:103990000F931F93CF93DF93F42E890180938604B6
:1039A0009091840496FFFCCFE0E8F4E067838160A7
:1039B000868381E08F1508F080E061E00E94AA1CF8
:1039C00080938304C0E0D0E01CC0809184048823ED
:1039D000E4F780918704F801EC0FFD1F80832150EC
:1039E0003109C217D30714F063E001C062E081E03F
:1039F000C217D3070CF480E00E94AA1C80938304B2
:103A000021962F2D30E0C217D307FCF2DF91CF9122
:103A10001F910F91FF9008958093860480918404F4
:103A200086FFFCCF609387048091840486FFFCCFDF
:103A3000409387048091840486FFFCCF63E080E09C
:103A40000E94AA1C8093830408955058BB27AA277C
:103A50000E943D1D0C94B71E0E94A91E38F00E94C2
:103A6000B01E20F039F49F3F19F426F40C94A61EE2
:103A70000EF4E095E7FB0C94A01EE92F0E94C81EEF
:103A800058F3BA17620773078407950720F079F493
:103A9000A6F50C94EA1E0EF4E0950B2EBA2FA02D7D
:103AA0000B01B90190010C01CA01A0011124FF27EB
:103AB000591B99F0593F50F4503E68F11A16F040E6
:103AC000A22F232F342F4427585FF3CF46953795E5
:103AD0002795A795F0405395C9F77EF41F16BA0BAA
:103AE000620B730B840BBAF09150A1F0FF0FBB1F58
:103AF000661F771F881FC2F70EC0BA0F621F731FA1
:103B0000841F48F4879577956795B795F7959E3FFD
:103B100008F0B0CF9395880F08F09927EE0F97958E
:103B2000879508950E947C1E08F481E008950E9404
:103B3000AB1D0C94B71E0E94B01E58F00E94A91E27
:103B400040F029F45F3F29F00C94A01E51110C9411
:103B5000EB1E0C94A61E0E94C81E68F39923B1F3B5
:103B6000552391F3951B550BBB27AA2762177307A3
:103B7000840738F09F5F5F4F220F331F441FAA1F37
:103B8000A9F335D00E2E3AF0E0E832D091505040F3
:103B9000E695001CCAF72BD0FE2F29D0660F771FA1
:103BA000881FBB1F261737074807AB07B0E809F087
:103BB000BB0B802DBF01FF2793585F4F3AF09E3F0C
:103BC000510578F00C94A01E0C94EB1E5F3FE4F3BB
:103BD000983ED4F3869577956795B795F7959F5F4F
:103BE000C9F7880F911D9695879597F90895E1E09B
:103BF000660F771F881FBB1F621773078407BA07FA
:103C000020F0621B730B840BBA0BEE1F88F7E09554
:103C100008950E94101E6894B1110C94EB1E089533
:103C20000E94D01E88F09F5798F0B92F9927B7515E
:103C3000B0F0E1F0660F771F881F991F1AF0BA9550
:103C4000C9F714C0B13091F00E94EA1EB1E00895A6
:103C50000C94EA1E672F782F8827B85F39F0B93F98
:103C6000CCF3869577956795B395D9F73EF4909503
:103C70008095709561957F4F8F4F9F4F0895E89481
:103C800009C097FB3EF490958095709561957F4FA4
:103C90008F4F9F4F9923A9F0F92F96E9BB27939552
:103CA000F695879577956795B795F111F8CFFAF462
:103CB000BB0F11F460FF1BC06F5F7F4F8F4F9F4F93
:103CC00016C0882311F096E911C0772321F09EE8F1
:103CD000872F762F05C0662371F096E8862F70E057
:103CE00060E02AF09A95660F771F881FDAF7880F31
:103CF0009695879597F90895990F0008550FAA0B87
:103D0000E0E8FEEF16161706E807F907C0F01216EE
:103D10001306E407F50798F0621B730B840B950BF1
:103D200039F40A2661F0232B242B252B21F4089546
:103D30000A2609F4A140A6958FEF811D811D0895E3
:103D400097F99F6780E870E060E008959FEF80EC4E
:103D5000089500240A9416161706180609060895F1
:103D600000240A9412161306140605060895092E57
:103D70000394000C11F4882352F0BB0F40F4BF2BC6
:103D800011F460FF04C06F5F7F4F8F4F9F4F089506
:103D900057FD9058440F551F59F05F3F71F04795FC
:103DA000880F97FB991F61F09F3F79F087950895E1
:103DB000121613061406551FF2CF4695F1DF08C000
:103DC000161617061806991FF1CF8695710561051D
:103DD00008940895E894BB2766277727CB0197F9C5
:103DE00008950E947C1E08F48FEF08950E94091F19
:103DF0000C94B71E0E94A91E38F00E94B01E20F03D
:103E0000952311F00C94A01E0C94A61E11240C9462
:103E1000EB1E0E94C81E70F3959FC1F3950F50E0F2
:103E2000551F629FF001729FBB27F00DB11D639F6C
:103E3000AA27F00DB11DAA1F649F6627B00DA11D12
:103E4000661F829F2227B00DA11D621F739FB00DB8
:103E5000A11D621F839FA00D611D221F749F332728
:103E6000A00D611D231F849F600D211D822F762FC1
:103E70006A2F11249F5750409AF0F1F088234AF09E
:103E8000EE0FFF1FBB1F661F771F881F915050400A
:103E9000A9F79E3F510580F00C94A01E0C94EB1ED8
:103EA0005F3FE4F3983ED4F3869577956795B79591
:103EB000F795E7959F5FC1F7FE2B880F911D9695AB
:103EC000879597F908952F923F924F925F926F9244
:103ED0007F928F929F92AF92BF92CF92DF92EF929A
:103EE000FF920F931F93CF93DF93CDB7DEB7609709
:103EF000CDBFDEBF7C011B016A01FC011682178267
:103F0000838181FF44C39E012F5F3F4F3901F70139
:103F10009381F10193FD859193FF81911F01882386
:103F200009F431C3853239F493FD859193FF819172
:103F30001F01853239F4B70190E00E942E2456010A
:103F40006501E5CF10E0512C912CFFE1F915D8F077
:103F50008B3279F038F4803279F08332A1F4F92D84
:103F6000F0612EC08D3261F0803369F4292D21601B
:103F70002DC0392D3260932E892D8460982E2AC051
:103F8000E92DE86015C097FC2DC020ED280F2A30E0
:103F900088F496FE06C03AE0139F200D1124122FDC
:103FA00019C08AE0589E200D1124522EE92DE0629E
:103FB0009E2E10C08E3231F496FCE5C2F92DF064CD
:103FC0009F2E08C08C3621F4292D2068922E02C025
:103FD000883641F4F10193FD859193FF81911F0192
:103FE0008111B3CF9BEB980F933020F4992D906102
:103FF000805E07C09BE9980F933008F066C1992D49
:104000009F7E96FF16E09F73992E853619F4906473
:10401000992E08C0863621F4392F3068932E02C0BD
:104020001111115097FE07C01C3350F444244394DF
:10403000410E27E00BC0183038F027E017E005C02C
:1040400027E09CE3492E02C0212F412C560184E039
:10405000A80EB11CF6016081718182819381042DCB
:10406000A3010E940B236C01F981FC87F0FF02C0C1
:10407000F3FF06C091FC06C092FE06C000E205C038
:104080000DE203C00BE201C000E08C858C7019F0DA
:1040900001115AC29BC297FE10C04C0CFC85F4FF64
:1040A00004C08A81813309F44A94141474F528E019
:1040B000241578F588E0482E2CC096FC2AC0812F64
:1040C00090E08C159D059CF03CEFC3163FEFD306A6
:1040D00074F0892D8068982E0AC0E2E0F0E0EC0FC1
:1040E000FD1FE10FF11D8081803319F41150111172
:1040F000F4CF97FE0EC044244394410E812F90E0EC
:10410000C816D9062CF41C1904C04424439401C0D9
:1041100010E097FE06C01C141D0434F4C60101967D
:1041200005C085E090E002C081E090E001110196B9
:10413000112331F0212F30E02F5F3F4F820F931F6B
:10414000252D30E08217930714F4581A01C0512C22
:10415000892D897049F4552039F0B70180E290E04B
:104160000E942E245A94F7CF002329F0B701802F04
:1041700090E00E942E2493FC09C0552039F0B7012D
:1041800080E390E00E942E245A94F7CF97FE4CC013
:104190004601D7FE02C0812C912CC60188199909CD
:1041A000F301E80FF91FED87FE8796012419310905
:1041B0002F87388B012F10E01195019511093FEFE2
:1041C0008316930629F4B7018EE290E00E942E2414
:1041D000C814D9044CF08F8598898815990524F462
:1041E000ED85FE85818101C080E3F1E08F1A9108A1
:1041F0002D853E852F5F3F4F2D873E878016910688
:104200002CF0B70190E00E942E24D9CFC814D90415
:1042100041F49A81963320F4953319F43C8534FFA8
:1042200081E3B70190E04EC08A81813319F09C850B
:104230009F7E9C87B70190E00E942E24111105C03B
:1042400094FC18C085E690E017C0B7018EE290E0BC
:104250000E942E241E5F82E001E0080FF301E80FA8
:10426000F11D8081B70190E00E942E24802F011360
:10427000F3CFE6CF85E490E0B7010E942E24D7FC6F
:1042800006C0C114D10441F4EC85E4FF05C0D1940B
:10429000C194D1088DE201C08BE2B70190E00E9489
:1042A0002E2480E32AE0C216D1042CF08F5FFAE0BE
:1042B000CF1AD108F7CFB70190E00E942E24B701A2
:1042C000C601C0960E942E2454C1833631F0833734
:1042D00079F0833509F056C020C0560132E0A30EB4
:1042E000B11CF6018081898301E010E0630112C0F6
:1042F0005601F2E0AF0EB11CF601C080D18096FEEF
:1043000003C0612F70E002C06FEF7FEFC6010E9413
:10431000FE238C01F92DFF7714C0560122E0A20E76
:10432000B11CF601C080D18096FE03C0612F70E001
:1043300002C06FEF7FEFC6010E94E3238C01F92DCD
:10434000F0689F2EF3FD1AC0852D90E0081719071D
:10435000A8F4B70180E290E00E942E245A94F4CF92
:10436000F60197FC859197FE81916F01B70190E06E
:104370000E942E2451105A94015011090115110563
:1043800079F7F7C0843611F0893661F5560197FE4A
:1043900009C024E0A20EB11CF60160817181828106
:1043A00093810AC0F2E0AF0EB11CF6016081718109
:1043B000072E000C880B990BF92DFF769F2E97FF87
:1043C00009C090958095709561957F4F8F4F9F4F55
:1043D000F0689F2E2AE030E0A3010E949324C82EAB
:1043E000C6183FC0092D853721F40F7E2AE030E042
:1043F0001DC0097F8F3691F018F4883559F0C3C07D
:10440000803719F0883711F0BEC0006104FF09C081
:10441000046007C094FE08C0066006C028E030E0D3
:1044200005C020E130E002C020E132E0560107FF84
:1044300009C084E0A80EB11CF601608171818281FF
:10444000938108C0F2E0AF0EB11CF601608171816A
:1044500080E090E0A3010E949324C82EC6180F7735
:10446000902E96FE0BC0092D0E7FC11650F494FEBF
:104470000AC092FC08C0092D0E7E05C0DC2C092D57
:1044800003C0DC2C01C0D12E04FF0DC0FE01EC0DD9
:10449000F11D8081803311F4097E09C002FF06C03E
:1044A000D394D39404C0802F867809F0D39403FD6D
:1044B00011C000FF06C01C2DD51480F4150D1D1968
:1044C0000DC0D51458F4B70180E290E00E942E246C
:1044D000D394F7CFD51410F45D1801C0512C04FF0C
:1044E00010C0B70180E390E00E942E2402FF17C0A5
:1044F00001FD03C088E790E002C088E590E0B701C5
:104500000CC0802F867859F001FF02C08BE201C0F9
:1045100080E207FD8DE2B70190E00E942E24C116D3
:1045200038F4B70180E390E00E942E241150F7CFB9
:10453000CA94F301EC0DF11D8081B70190E00E9457
:104540002E24C110F5CF15C0F4E0F51560F584E018
:10455000581A93FE1FC0011127C02C8523FF2AC0C3
:1045600004E312E0392D3071932EF801849181110A
:1045700024C0552009F4E4CCB70180E290E00E9409
:104580002E245A94F6CFF7018681978126C08FEFAB
:104590009FEF23C0B70180E290E00E942E245A943E
:1045A0005110F8CFD8CF512CB701802F90E00E9446
:1045B0002E24D3CF08E312E0D5CF91108052B7015B
:1045C00090E00E942E240F5F1F4FCFCF23E02515D0
:1045D00010F483E0BDCF512CC0CF6096CDBFDEBFBD
:1045E000DF91CF911F910F91FF90EF90DF90CF90CF
:1045F000BF90AF909F908F907F906F905F904F9003
:104600003F902F900895EE0FFF1F881F8BBF0790DC
:10461000F691E02D1994283008F027E03327DA01CD
:10462000990F311D87FD916000966105710539F480
:1046300032602E5F3D9330E32A95E1F708959F3F66
:1046400030F080387105610509F03C5F3C5F3D93B7
:10465000913008F08068911DDF93CF931F930F93E3
:10466000FF92EF92192F987F9695E92F9695969540
:10467000E90FFF27EA56FD4F99273327EE24FF2441
:10468000A701E70105900894079428F4360FE71E68
:10469000F81E491F511D660F771F881F991F06942A
:1046A000A1F70590079428F4E70EF81E491F561F3E
:1046B000C11D770F881F991F661F0694A1F70590EB
:1046C000079428F4F80E491F561FC71FD11D880FE5
:1046D000991F661F771F0694A1F70590079420F491
:1046E000490F561FC71FD81F990F661F771F881FB6
:1046F0000694A9F784911095177041F0D695C79547
:1047000057954795F794E7941A95C1F7ECE3F2E0D3
:1047100068941590159135916591959105907FE27A
:104720007395E118F10A430B560BC90BD009C0F77A
:10473000E10CF11E431F561FC91FD01D7EF47033BC
:1047400011F48A95E6CFE894015030F0080F0AF48E
:104750000027021708F4202F2395022F7A3328F020
:1047600079E37D932A95E9F710C07D932A9589F620
:10477000069497956795379517951794E118F10A60
:10478000430B560BC90BD00998F023957E91739576
:104790007A3308F070E37C932013B8F77E91706150
:1047A0007D9330F0839571E37D9370E32A95E1F773
:1047B0001124EF90FF900F911F91CF91DF919927D6
:1047C00087FD90950895FC0105906150704001109F
:1047D000D8F7809590958E0F9F1F0895FB01DC01FF
:1047E00002C001900D9241505040D8F70895DC016D
:1047F00001C06D9341505040E0F70895FC016150B5
:10480000704001900110D8F7809590958E0F9F1FF2
:104810000895BB274A3031F4992322F4BDE29095E4
:1048200081959F4F0C941524BB27FB015527AA2780
:10483000880F991FAA1FA41710F0A41B839550512D
:10484000B9F7A05DAA3308F0A95DA193009779F7A5
:10485000B111B1931192CB010C94F1240F931F93DA
:10486000CF93DF93FB01238121FD03C08FEF9FEFE7
:104870002CC022FF16C04681578124813581421702
:10488000530744F4A081B1819D012F5F3F4F2083E6
:1048900031838C93268137812F5F3F4F2683378367
:1048A00014C08B01EC01FB010084F185E02D19950A
:1048B000892BE1F6D80116968D919C911797019658
:1048C00016968D939C931797CE01DF91CF911F91F0
:1048D0000F9108950F931F93CF93DF93CDB7DEB75A
:1048E0002E97CDBFDEBF0E891F8986E08C8309839A
:1048F0001A838FEF9FE78D839E83AE01465E5F4FE5
:10490000688D798DCE0101960E94631FEF81F88535
:10491000E00FF11F10822E96CDBFDEBFDF91CF9149
:104920001F910F910895FA01AA27283051F12031E3
:1049300081F1E8946F936E7F6E5F7F4F8F4F9F4F33
:10494000AF4FB1E03ED0B4E03CD0670F781F891F75
:104950009A1FA11D680F791F8A1F911DA11D6A0F43
:10496000711D811D911DA11D20D009F468943F91F6
:104970002AE0269F11243019305D3193DEF6CF01F5
:104980000895462F4770405D4193B3E00FD0C9F7BB
:10499000F6CF462F4F70405D4A3318F0495D31FD28
:1049A0004052419302D0A9F7EACFB4E0A69597957B
:1049B000879577956795BA95C9F700976105710551
:1049C00008959B01AC010A2E06945795479537959B
:1049D0002795BA95C9F7620F731F841F951FA01DF5
:1049E0000895DC01FC01672F71917723E1F732977D
:1049F00004C07C916D9370836291AE17BF07C8F3BA
:064A00000895F894FFCFB9
:104A060049444C4500546D72205376630054656DDD
:104A1600703A20252E326620430078252E306620F7
:104A260079252E3066207A252E306620722F730067
:104A360078252E30662079252E3066207A252E3070
:104A46006620670078252E30662079252E30662070
:104A56007A252E30662075540053656E736F724446
:104A6600617461446973706C61790064697370552F
:064A76007064617465002C
:00000001FF
